:10158500D3EF9400EE940040147D6E7C00ED1D7049
:0D159500011CED4C70F7EF1F70E61E80E3A7
:0115A2002226
:0A160D0025303264002530346400FB
:10139700015900015A000122FF02270038025300B9
:1013A7003B0257000602250013025C000C025E0098
:1013B7001602230000022900000255000002600007
:0913C70000026200000264000053
:10000E0030A0030200CC7F0A7E0012158530A003BB
:10001E000200CC30A0FDD2B40559E559C394074077
:10002E0003E4F559E55A7049E559B407005042907A
:10003E000044F828287302005902005F02006A0289
:10004E00006E02007202007602007AD28C7F0C8063
:10005E001DC28C7F0F1215B77FCB80127FC8800E0A
:10006E007FC5800A7F8580067F8880027F8B121570
:10007E00B7E55A64017047E559B407005040900047
:10008E0093F82828730200A80200AE0200B70200FF
:10009E00BB0200BF0200C30200C7D28C7F0C801BC4
:1000AE007F0F1215B77FCB80127FC8800E7FC58061
:1000BE000A7F8580067F8880027F8B1215B720A36A
:1000CE001B7F0A7E0012158520A31130A3FDD2B42A
:1000DE00055AE55AD394014003E4F55A30A20302BF
:1000EE0005067F0A7E0012158530A2030205063032
:1000FE00A2FDD2B4E55A600302034DE55924FE6019
:10010E00611470030201B21470030201F41470033F
:10011E000202251470030202682405600302034DD7
:10012E000528E52870020527C3943CE527648094D2
:10013E00804005E4F527F528750BFF750C16750D37
:10014E000D85270E85280F7B007A00792B120984E6
:10015E007B007A00792B7D017F0A1213D57FCB02AB
:10016E00034A0554E55470020553C3943CE55364A9
:10017E008094804005E4F553F554750BFF750C160D
:10018E00750D0D85530E85540F7B007A00792E1256
:10019E0009847B007A00792E7D017F071213D57FAB
:1001AE00C802034A0558E55870020557C39418E56E
:1001BE0057648094804005E4F557F558750BFF752C
:1001CE000C16750D0D85570E85580F7B007A00792C
:1001DE00311209847B007A0079317D017F0412137C
:1001EE00D57FC502034A0526E52670020525750B47
:1001FE00FF750C16750D1285250EF50F7B007A0016
:10020E0079341209847B007A007934E4FD7F02127E
:10021E0013D57F8502034A055DE55D7002055CD34B
:10022E00940CE55C648094804006755C00755D01FD
:10023E00750BFF750C16750D0D855C0E855D0F7BB0
:10024E00007A0079371209847B007A007937E4FD51
:10025E007F071213D57F8802034AAE25AF267C0195
:10026E007D901210F7ED4C601DAE25AF267C007D03
:10027E00041210F7ED4C701BAE25AF26FC7D6412F8
:10028E0010F7ED4C600DE55D6402455C7010755B1A
:10029E001D800BE55D6402455C7003755B1CE55DBE
:1002AE006401455C6030E55D6403455C6028E55D96
:1002BE006405455C6020E55D6407455C6018E55D9E
:1002CE006408455C6010E55D640A455C6008E55DA8
:1002DE00640C455C7003755B1FE55D6404455C60F2
:1002EE0018E55D6406455C6010E55D6409455C607B
:1002FE0008E55D640B455C7003755B1E055FE55F8D
:10030E007002055ED3955B7480F8655E9840067545
:10031E005E00755F01750BFF750C16750D0D855E14
:10032E000E855F0F7B007A00793A1209847B007A82
:10033E0000793AE4FD7F0A1213D57F8B1215B7E5CB
:10034E005A64016003020506E55924FE60611470CB
:10035E00030203FF147003020441147003020483AA
:10036E001470030204C4240560030205060524E587
:10037E002470020523C3943CE523648094804005D9
:10038E00E4F523F524750BFF750C16750D0D8523FD
:10039E000E85240F7B007A00793D1209847B007A4A
:1003AE0000793D7D017F0A1213D57FCB020503052F
:1003BE002AE52A70020529C3943CE52964809480BD
:1003CE004005E4F529F52A750BFF750C16750D0D14
:1003DE0085290E852A0F7B007A0079401209847BCD
:1003EE00007A0079407D017F071213D57FC8020580
:1003FE00030556E55670020555C39418E5556480FD
:10040E0094804005E4F555F556750BFF750C167581
:10041E000D0D85550E85560F7B007A007943120916
:10042E00847B007A0079437D017F041213D57FC54A
:10043E000205030565E56570020564C39418E5645D
:10044E00648094804005E4F564F565750BFF750CCA
:10045E0016750D0D85640E85650F7B007A00794645
:10046E001209847B007A007946E4FD7F041213D5CD
:10047E007F850205030563E56370020562C3943C44
:10048E00E562648094804005E4F562F563750BFFC8
:10049E00750C16750D0D85620E85630F7B007A0047
:1004AE0079491209847B007A007949E4FD7F0712AD
:1004BE0013D57F88803F0561E56170020560C394A6
:1004CE003CE560648094804005E4F560F561750B51
:1004DE00FF750C16750D0D85600E85610F7B007A0C
:1004EE0000794C1209847B007A00794CE4FD7F0A76
:1004FE001213D57F8B1215B730A10302091D7F0A87
:10050E007E0012158530A10302091D30A1FDD2B463
:10051E00E55A600302076BE55924FE606014700310
:10052E000205CC14700302060D14700302063F146C
:10053E0070030206842405600302076BE528152864
:10054E0070021527C3E52764809480500675270036
:10055E0075283B750BFF750C16750D0D85270E85D1
:10056E00280F7B007A00792B1209847B007A0079A0
:10057E002B7D017F0A1213D57FCB020768E5541538
:10058E005470021553C3E55364809480500675531E
:10059E000075543B750BFF750C16750D0D85530EBE
:1005AE0085540F7B007A00792E1209847B007A0025
:1005BE00792E7D017F071213D57FC8020768E55893
:1005CE00155870021557C3E5576480948050067510
:1005DE005700755817750BFF750C16750D0D855751
:1005EE000E85580F7B007A0079311209847B007AD0
:1005FE000079317D017F041213D57FC5020768E5AE
:10060E0026152670021525750BFF750C16750D1225
:10061E0085250E85260F7B007A0079341209847B9E
:10062E00007A007934E4FD7F021213D57F8502072C
:10063E0068E55D155D7002155CC3E55D9401E55CD2
:10064E00648094805006755C00755D0C750BFF75AB
:10065E000C16750D0D855C0E855D0F7B007A00798D
:10066E00371209847B007A007937E4FD7F07121375
:10067E00D57F88020768AE25AF267C017D901210CB
:10068E00F7ED4C601DAE25AF267C007D041210F7F1
:10069E00ED4C701BAE25AF26FC7D641210F7ED4CB1
:1006AE00600DE55D6402455C7010755B1D800BE5A9
:1006BE005D6402455C7003755B1CE55D6401455C21
:1006CE006030E55D6403455C6028E55D6405455C6E
:1006DE006020E55D6407455C6018E55D6408455C77
:1006EE006010E55D640A455C6008E55D640C455C80
:1006FE007003755B1FE55D6404455C6018E55D6421
:10070E0006455C6010E55D6409455C6008E55D6466
:10071E000B455C7003755B1EE55F155F7002155E21
:10072E00C3E55F9401E55E648094805006755E00BB
:10073E00855B5F750BFF750C16750D0D855E0E8551
:10074E005F0F7B007A00793A1209847B007A007978
:10075E003AE4FD7F0A1213D57F8B1215B7E55A6462
:10076E0001600302091DE55924FE60601470030246
:10077E00081B14700302085C14700302089C1470AA
:10078E00030208DC2405600302091DE5241524700C
:10079E00021523C3E52364809480500675230075EB
:1007AE00243B750BFF750C16750D0D85230E8524D8
:1007BE000F7B007A00793D1209847B007A00793D27
:1007CE007D017F0A1213D57FCB02091AE52A152A5D
:1007DE0070021529C3E5296480948050067529009E
:1007EE00752A3B750BFF750C16750D0D85290E853B
:1007FE002A0F7B007A0079401209847B007A0079F7
:10080E00407D017F071213D57FC802091AE55615E0
:10081E005670021555C3E555648094805006755583
:10082E0000755617750BFF750C16750D0D85550E4B
:10083E0085560F7B007A0079431209847B007A007B
:10084E0079437D017F041213D57FC502091AE56530
:10085E00156570021564C3E5646480948050067556
:10086E006400756517750BFF750C16750D0D856497
:10087E000E85650F7B007A0079461209847B007A1B
:10088E00007946E4FD7F041213D57F85807EE563F3
:10089E00156370021562C3E562648094805006751C
:1008AE00620075633B750BFF750C16750D0D856239
:1008BE000E85630F7B007A0079491209847B007ADA
:1008CE00007949E4FD7F071213D57F88803EE561EC
:1008DE00156170021560C3E56064809480500675E2
:1008EE00600075613B750BFF750C16750D0D8560FF
:1008FE000E85610F7B007A00794C1209847B007A99
:10090E0000794CE4FD7F0A1213D57F8B1215B7E5E3
:0A091E005A60030522227522FF2211
:1015B700C2B5C2B6D2B78F807F057E00121585C22D
:0215C700B72249
:1015C900D2B5C2B6D2B78F807F057E00121585C20B
:0215D900B72237
:1015A3007F011215B77F061215B77F381215B77F63
:0415B3000C0215B75A
:101563008F668D678B68E5677006E5662480800962
:10157300E567B40108E56624C0FF1215B7AF68023A
:0215830015C988
:1013D5008F088D098B0A8A0B890CE5097006E508CB
:1013E50024808009E509B40108E50824C0FF121529
:1013F500B7AB0AAA0BA90C121089FF60101215C908
:0E1405007401250CF50CE4350BF50B80E42288
:0A161700C0F9A4B0999282F88098FF
:03000300C2802296
:10148A00C280751C8A751DD0051DE51DAE1C700233
:10149A00051C144E70F2D280751C8A751DD0051D6C
:0D14AA00E51DAE1C7002051C144E70F222F0
:10151100C280751CC3751D50E51D151DAE1C7002E2
:10152100151C4E70F3D280751CC3751D50E51D1539
:0B1531001DAE1C7002151C4E70F32252
:1014B700C280751EC3751F50E51F151F7002151ECC
:1014C700E51F451E70F2D280751EC3751F50E51FBC
:0D14D700151F7002151EE51F451E70F22244
:1015DB00C2807FF47E01121585D2807FF47E0102DA
:0215EB00158564
:1014E4007580FE751C00751D087FF47E011215853C
:1014F400E58025E004F580E51D151D7002151CD35B
:0D150400E51D9400E51C6480948050DD22FC
:101413007580FEE4F51CF51D7FC87E00121585E579
:101423008025E0F56FE580C41313135401F570456F
:101433006FF5807FC87E00121585051DE51D7002BE
:0D144300051CC39407E51C6480948040CB19
:011450002279
:1015ED00C2A7C2A6C2A5C2A490161EE493F590226E
:10133F00C2A7D2A6D2A5D2A4901618E493F5907F97
:10134F00017E00121585D2A7C2A6D2A5D2A49016EF
:10135F0019E493F5907F017E00121585D2A7D2A6CE
:10136F00C2A5D2A490161AE493F5907F017E0012C5
:10137F001585D2A7D2A6D2A5C2A490161BE493F5C9
:08138F00907F017E000215852C
:0411A200AB07AA06E7
:1011A6007C007D0A1210A28D697C007D0AAF03AE19
:1011B600021210A27C007D0A1210A28D6A7C007DAC
:1011C60064AF03AE021210A27C007D0A1210A28D3B
:1011D6006BAE02AF037C037DE81210A2C2A7D2A6B3
:1011E600D2A5D2A4EF90161793F5907F017E001238
:1011F6001585D2A7C2A6D2A5D2A4E56B90161793E1
:10120600F5907F017E00121585D2A7D2A6C2A5D27F
:10121600A4E56A90161793F5907F017E0012158556
:10122600D2A7D2A6D2A5C2A4E56990161793F590C7
:071236007F017E0002158517
:1012C900ED75F00A8485F06CED75F00A84F56DEF23
:1012D90075F00A8485F06EEF75F00A84C2A7D2A66C
:1012E900D2A5D2A490161793F5907F017E0012150E
:1012F90085D2A7C2A6D2A5D2A4E56E90161793F5FA
:10130900907F017E00121585D2A7D2A6C2A5D2A4CC
:10131900E56D90161793F5907F017E00121585D221
:10132900A7D2A6D2A5C2A4E56C90161793F5907F13
:06133900017E0002158593
:101451002020202030303A30303A303020202020F7
:10146100002020303030302030302030302020003B
:1014710025303264002530346400202020203030B3
:0914810020303020303020200022
:0413D00002710000A6
:1015FD00758902758C38758A38D2AFD2A9D28C22F2
:100C84001215A31215FD7BFF7A1479517D01E4FF3F
:100C94001213D57BFF7A147962E4FDFF1213D5E5B4
:100CA4005A6003020D98E5596003020D91750BFF1C
:100CB400750C14750D7185270E85280FFB7A007944
:100CC4002B1209847B007A00792B7D017F0A121391
:100CD400D5750BFF750C14750D7185530E85540F66
:100CE4007B007A00792E1209847B007A00792E7DAC
:100CF400017F071213D5750BFF750C14750D7185E3
:100D0400570E85580F7B007A0079311209847B00D5
:100D14007A0079317D017F041213D5750BFF750CB0
:100D240014750D7685250E85260F7B007A0079349F
:100D34001209847B007A007934E4FD7F021213D512
:100D4400750BFF750C14750D71855C0E855D0F7B3D
:100D5400007A0079371209847B007A007937E4FD40
:100D64007F071213D5750BFF750C14750D71855E15
:100D74000E855F0F7B007A00793A1209847B007A32
:100D840000793AE4FD7F0A1213D512000EE559608A
:100D94000312000EE55A64016003020EB2E55960C5
:100DA40003020EABE522701E7F011215B77BFF7A9A
:100DB4001479517D01E4FF1213D57BFF7A14797BFA
:100DC400E4FDFF1213D5750BFF750C14750D7185B9
:100DD400290E852A0F7B007A0079401209847B0052
:100DE4007A0079407D017F071213D5750BFF750CCE
:100DF40014750D7185550E85560F7B007A00794365
:100E04001209847B007A0079437D017F041213D593
:100E1400750BFF750C14750D7185600E85610F7B64
:100E2400007A00794C1209847B007A00794CE4FD45
:100E34007F0A1213D5750BFF750C14750D7185623D
:100E44000E85630F7B007A0079491209847B007A4E
:100E5400007949E4FD7F071213D5750BFF750C1457
:100E6400750D7185640E85650F7B007A00794612D5
:100E740009847B007A007946E4FD7F041213D5755A
:100E84000BFF750C14750D7185230E85240F7B00E3
:100E94007A00793D1209847B007A00793D7D017FD7
:100EA4000A1213D512000EE559600312000EE5581C
:100EB400B5561BE557B55516E554B52A11E553B596
:100EC400290CE528B52407E527B52302C2B4E55665
:100ED4002565FFE5553564FEEF65587003EE6557EB
:100EE4006003020CA3E52A2563FFE5293562FEEFC2
:100EF40065547003EE65536003020CA3E524256179
:100F0400FFE5233560FEEF65287003EE6527600377
:080F1400020CA3D2B4020CA3ED
:03000B00020F1CC5
:100F1C00C0E0C0F0C0D075D000C000C004C005C097
:100F2C0006C0070572E57270020571C39488E571FD
:100F3C00941350030210787571007572000528E542
:100F4C002870020527943CE52764809480500302A6
:100F5C0010787527007528000554E5547002055368
:100F6C00943CE553648094805003021078755300D0
:100F7C007554000558E558700205579418E55764E8
:100F8C008094805003021078755700755800055FE7
:100F9C00E55F7002055EAE25AF267C017D901210D8
:100FAC00F7ED4C601DAE25AF267C007D041210F7CA
:100FBC00ED4C701BAE25AF26FC7D641210F7ED4C8A
:100FCC00600DE55D6402455C7010755B1D800BE582
:100FDC005D6402455C7003755B1CE55D6401455CFA
:100FEC006030E55D6403455C6028E55D6405455C47
:100FFC006020E55D6407455C6018E55D6408455C50
:10100C006010E55D640A455C6008E55D640C455C58
:10101C007003755B1FE55D6404455C6018E55D64F9
:10102C0006455C6010E55D6409455C6008E55D643F
:10103C000B455C7003755B1ED3E55F955B7480F8A4
:10104C00655E984027755E00755F01055DE55D7016
:10105C0002055CD3940CE55C64809480400E755C56
:10106C0000755D010526E52670020525D007D00622
:0D107C00D005D004D000D0D0D0F0D0E032AC
:0300000002123DAC
:0C123D00787FE4F6D8FD758172021284FF
:10108900BB010689828A83E0225002E722BBFE0265
:09109900E32289828A83E4932298
:1010A200BC000BBE0029EF8DF084FFADF022E4CC32
:1010B200F875F008EF2FFFEE33FEEC33FCEE9DECFB
:1010C200984005FCEE9DFE0FD5F0E9E4CEFD22ED41
:1010D200F8F5F0EE8420D21CFEADF075F008EF2F8B
:1010E200FFED33FD4007985006D5F0F222C398FD7C
:0510F2000FD5F0EA2219
:1010F700C2D5EC30E709B2D5E4C39DFDE49CFCEE14
:1011070030E715B2D5E4C39FFFE49EFE1210A2C3D9
:10111700E49DFDE49CFC80031210A230D507C3E4D4
:061127009FFFE49EFE2282
:10092800E517240BF8E60517227808300702780B3C
:10093800E475F00112116C0210892000EB7F2ED2B1
:10094800008018EF540F2490D43440D4FF30040BA7
:10095800EF24BFB41A0050032461FFE518600215A4
:1009680018051BE51B7002051A30070D7808E47599
:10097800F00112116CEF02115A02153C7403D207F0
:100988008003E4C207F5178B088A09890AE4F51879
:10099800F51AF51BE51860077F2012096380F575C5
:1009A80019FFC201C200C202C203C205C206C208C0
:1009B800120931FF700D3007057F00120974AF1B53
:1009C800AE1A22B4255FC2D5C204120931FF24D061
:1009D800B40A00501A75F00A781830D50508B6FF21
:1009E8000106C6A426F620D5047002D20380D924B5
:1009F800CFB41A00EF5004C2E5D204020B74D2013E
:100A080080C6D20080C0D20280BCD2D580BAD205BE
:100A180080B47F201209632002077401B5180040D2
:100A2800F1120928FF12096302099CD208D2068034
:100A380095120928FB120928FA120928F94A4B705D
:100A48000679457A0C7BFF20022EE518602A7E0085
:100A58008E8275830012112D60060EEE651970F0F6
:100A6800C2D5EBC0E0EAC0E0E9C0E0EE120BBBD0B3
:100A7800E0F9D0E0FAD0E0FB121089FF60AAEBC0E1
:100A8800E0EAC0E0E9C0E0120963D0E02401F9D04F
:100A9800E03400FAD0E0FBE5190460DCD519D98010
:100AA800877BFF7A0B79B7D202809C791080027914
:100AB80008C206C2088008D2D5790A8004790AC219
:100AC800D5E519047002F519E4FAFDFEFF120928AC
:100AD800FC7B08200113120928FD7B1030000A1244
:100AE8000928FE120928FF7B20EC3382D592D550C5
:100AF80013C3E43000069FFFE49EFEE42001039D3B
:100B0800FDE49CFCE4CBF8C201EC700CCFCECDCC5C
:100B1800E824F8F870F38017C3EF33FFEE33FEEDE7
:100B280033FDEC33FCEB33FB994002FB0FD8E9EBC8
:100B3800300105F8D0E0C448B201C0E00AEC4D4EDF
:100B48004F78207B0070C2EAB5190040BCC0E012A3
:100B58000BBDD0F0D0E0200104C4C0E0C4B201C095
:100B6800F012094CD0F0D5F0EB02099C12117C0A66
:100B780039530AB3580A0A4C0A06420AB74F0ABF41
:0F0B8800440ABF490A1F430AC5550AA9460AA9CC
:100B9700450AA9470C65500A0E2D0A122E0A352B55
:100BA7000A16230A33200C4E2A09CE4800000A2DC4
:100BB7003F3F3F00790AA2D5200314300509B91039
:100BC700020404B9080104A2D5200602500104203A
:100BD70002689202B518005034C0E07F2030031934
:100BE7007F30A20272067205500F120C14C202C2A5
:100BF70006C205C2087F30800F300503E9C0E01246
:100C07000963300503D0E0F9D0E0B518CC300517FB
:100C17007F30B9100C1209637F583004077F788042
:100C270003B908031209633002057F2D0209637FA8
:100C3700202008F87F2B2006F322920280CF286E0F
:100C4700756C6C2900D2011209283001F8C20178AD
:100C57001830D50108F60209CE2D5043495812091C
:100C6700282403B405004001E4900C609312095452
:0D0C7700743A120954D203751804020AB32E
:10124900020C84E493A3F8E493A34003F68001F22B
:1012590008DFF48029E493A3F85407240CC8C333A6
:10126900C4540F4420C8834004F456800146F6DF75
:10127900E4800B0102040810204080901397E47E5B
:10128900019360BCA3FF543F30E509541FFEE4936A
:10129900A360010ECF54C025E060A840B8E493A331
:1012A900FAE493A3F8E493A3C8C582C8CAC583CA5C
:1012B900F0A3C8C582C8CAC583CADFE9DEE780BE14
:0113D4000018
:10112D00BB010CE58229F582E5833AF583E0225077
:10113D0006E92582F8E622BBFE06E92582F8E222C1
:0D114D00E58229F582E5833AF583E49322DB
:10115A00BB010689828A83F0225002F722BBFE0174
:02116A00F3226E
:10116C00FAE6FB0808E6F925F0F618E6CA3AF62284
:10117C00D083D082F8E4937012740193700DA3A302
:10118C0093F8740193F5828883E473740293686016
:06119C00EFA3A3A380DF16
:10153C00EFB40A07740D121547740A309811A89964
:10154C00B8130CC2983098FDA899C298B811F6300F
:07155C0099FDC299F59922E7
:00000001FF
