:0A04710001083701093B020A0000F0
:10045100758901758CD8758AF0D2A9D2AFD28C2258
:10046100758902758C38758A38D2A9D2AFD28C229F
:0F04910012046112000EAD08AF091201D480F4FD
:03000B00020335B8
:10033500C0E0C0D0050BE50B7002050AC39488E543
:100345000A94134020750A00750B000508E508643A
:100355008094BC40107508000509E509648094BCCB
:0A0365004003750900D0D0D0E0324B
:10042100D3EF9400EE940040147D6E7C00ED1D70BE
:0D043100011CED4C70F7EF1F70E61E80E31C
:01043E00229B
:0A04A000C0F9A4B0999282F8809888
:03000300C2802296
:10036F00C280750C8A750DD0050DE50DAE0C7002AF
:10037F00050C144E70F2D280750C8A750DD0050DD8
:0D038F00E50DAE0C7002050C144E70F2224C
:1003F600C280750CC3750D50E50D150DAE0C70025F
:10040600150C4E70F3D280750CC3750D50E50D15A5
:0B0416000DAE0C7002150C4E70F322AE
:10039C00C280750EC3750F50E50F150F7002150E48
:1003AC00E50F450E70F2D280750EC3750F50E50F38
:0D03BC00150F7002150EE50F450E70F222B0
:10043F00C2807FF47E01120421D2807FF47E0102FC
:02044F00042186
:1003C9007580FE750C00750D087FF47E01120421FD
:1003D900E58025E004F580E50D150D7002150CD3B7
:0D03E900E50D9400E50C6480948050DD2249
:1002F7007580FEE4F50CF50D7FC87E00120421E53C
:100307008025E0F516E580C41313135401F517454E
:1003170016F5807FC87E00120421050DE50D7002D9
:0D032700050CC39407E50C6480948040CB66
:0103340022A6
:10048100C2A7C2A6C2A5C2A49004A7E493F5902274
:10024A00C2A7D2A6D2A5D2A49004A1E493F5907F26
:10025A00017E00120421D2A7C2A6D2A5D2A490047C
:10026A00A2E493F5907F017E00120421D2A7D2A6C0
:10027A00C2A5D2A49004A3E493F5907F017E001254
:10028A000421D2A7D2A6D2A5C2A49004A4E493F5CD
:08029A00907F017E00020421A7
:0400AD00AB07AA06ED
:1000B1007C007D0A1202A28D107C007D0AAF03AE86
:1000C100021202A27C007D0A1202A28D117C007D27
:1000D10064AF03AE021202A27C007D0A1202A28D5D
:1000E10012AE02AF037C037DE81202A2C2A7D2A620
:1000F100D2A5D2A4EF9004A093F5907F017E0012C7
:100101000421D2A7C2A6D2A5D2A4E5129004A0933D
:10011100F5907F017E00120421D2A7D2A6C2A5D2FA
:10012100A4E5119004A093F5907F017E00120421B3
:10013100D2A7D2A6D2A5C2A4E5109004A093F590AF
:070141007F017E0002042192
:1001D400ED75F00A8485F013ED75F00A84F514EFDB
:1001E40075F00A8485F015EF75F00A84C2A7D2A6CB
:1001F400D2A5D2A49004A093F5907F017E001204AE
:1002040021D2A7C2A6D2A5D2A4E5159004A093F545
:10021400907F017E00120421D2A7D2A6C2A5D2A447
:10022400E5149004A093F5907F017E00120421D27E
:10023400A7D2A6D2A5C2A4E5139004A093F5907FFB
:06024400017E000204210E
:05047B00011800C100A2
:10000E0020A0177F0A7E0012042120A00DC2B4305A
:10001E00A0FDD2B4C281B28CB20020A2187F0A7E9B
:10002E000012042120A20EC2B430A2FDD2B4C284AA
:10003E00E4F509F50830003120A12E7F0A7E00126A
:10004E00042120A124C2B430A1FDD2B4C287050878
:10005E00C3E508648094BC4010E4F5080509E50981
:10006E00648094BC4003E4F50930003220A32F7F56
:10007E000A7E0012042120A325C2B430A3FDD2B4FF
:10008E00C2831508C3E50864809480501175083B3F
:0F009E001509C3E50964809480500375093B225E
:03000000020148B2
:0C014800787FE4F6D8FD75812002018F5D
:1002A200BC000BBE0029EF8DF084FFADF022E4CC40
:1002B200F875F008EF2FFFEE33FEEC33FCEE9DEC09
:1002C200984005FCEE9DFE0FD5F0E9E4CEFD22ED4F
:1002D200F8F5F0EE8420D21CFEADF075F008EF2F99
:1002E200FFED33FD4007985006D5F0F222C398FD8A
:0502F2000FD5F0EA2227
:10015400020491E493A3F8E493A34003F68001F22C
:1001640008DFF48029E493A3F85407240CC8C333AC
:10017400C4540F4420C8834004F456800146F6DF7B
:10018400E4800B0102040810204080900471E47E96
:10019400019360BCA3FF543F30E509541FFEE49370
:1001A400A360010ECF54C025E060A840B8E493A337
:1001B400FAE493A3F8E493A3C8C582C8CAC583CA62
:1001C400F0A3C8C582C8CAC583CADFE9DEE780BE1A
:01048000007B
:00000001FF
