:10029D00E4FD7F6B1203017D077F191203017D06BB
:1002AD007F1A1203017D187F1B1203017D017F1C34
:0302BD0002030138
:10015A0012031A12029D7F3B120279AA06AB07E428
:10016A00FD7F021202007F3D120279AA06AB07E464
:10017A00FD7F071202007F3F120279AA06AB07E44D
:10018A00FD7F0C1202007F43120279AA06AB077D9B
:10019A00017F021202007F45120279AA06AB077D8F
:1001AA00017F071202007F47120279AA06AB077D78
:0801BA00017F0C120200809E7F
:10032E00C2B5C2B6D2B78F807F057E001202E3C27D
:02033E00B722E4
:10034000D2B5C2B6D2B78F807F057E001202E3C25B
:02035000B722D2
:10031A007F0112032E7F0612032E7F3812032E7FCF
:04032A000C02032E90
:1001C2008F0A8D0B8B0C8A0D890EE50B7006E50AE2
:1001D20024808009E50BB40108E50A24C0FF12035C
:1001E2002EAB0CAA0DA90E120003FF6010120340E1
:0E01F2007401250EF50EE4350DF50D80E422A6
:100200008F088D09AF03AE027C007D4012002E7B6B
:10021000007A00790FAD07AC061200B97B007A00B6
:09022000790FAD09AF080201C21B
:0F035200D2A6D2A7120394C2A6120394C2A72266
:0C037C00C2A6D2A7120394D2A6020394DA
:0E036100A20092A6D2A7120394C2A702039490
:0D036F00D2A7120394A2A6C2A712039422E3
:0202C0008F0CA1
:1002C200E4F50DE50C25E0F50C92A6D2A7120394F5
:1002D200C2A7120394050DE50DC3940840E502037D
:0102E2006FAC
:10022900E4F50DD2A6F50CE50D25E0F50DD2A712E2
:100239000394A2A6E433420DC2A7120394050CE568
:080249000CC3940840E1AF0D65
:01025100228A
:100301008F088D091203527FD01202C0AF0812026A
:09031100C0AF091202C002037C16
:020252008F0A11
:100254001203527FD01202C0AF0A1202C01203521C
:100264007FD11202C01202298F0BD2001203611235
:04027400037CAF0B4D
:010278002263
:1002E300D3EF9400EE940040147D727C00ED1D70FA
:0D02F300011CED4C70F7EF1F70E61E80E35C
:0103000022DA
:010394002246
:1000B9008B0A8A0B890C8C0D8D0EC3E50D64809417
:1000C90080500FC3E4950EF50EE4950DF50D742DD2
:1000D9008008AB0AAA0BA90C742012001CAE0DAF44
:1000E9000E7C007D6412002EEF2430FFAB0A050C54
:1000F900E50C7002050BF9AA0BEF12001CAE0DAF4F
:100109000E7C007D6412002E8C0D8D0EAE0DAF0E8F
:100119007C007D0A12002EEF2430FFAB0A050CE5A6
:100129000C7002050BF9AA0BEF12001CAE0DAF0EF5
:100139007C007D0A12002E8C0D8D0EE50E2430FFF9
:10014900AB0A050CE50C7002050BF9AA0BEF0200CE
:010159001C89
:020279008F08EC
:10027B001202528F09E50804FF120252AD07AF09B3
:10028B00EF3395E0EFFEED3395E0FCE42DFFEE3C14
:01029B00FE64
:01029C00223F
:0300000002038870
:0C038800787FE4F6D8FD75812002015A50
:10000300BB010689828A83E0225002E722BBFE02FB
:09001300E32289828A83E493222E
:10001C00BB010689828A83F0225002F722BBFE01C3
:02002C00F322BD
:10002E00C2D5EC30E709B2D5E4C39DFDE49CFCEEED
:10003E0030E715B2D5E4C39FFFE49EFE120064C301
:10004E00E49DFDE49CFC800312006430D507C3E4FC
:06005E009FFFE49EFE225C
:10006400BC000BBE0029EF8DF084FFADF022E4CC80
:10007400F875F008EF2FFFEE33FEEC33FCEE9DEC49
:10008400984005FCEE9DFE0FD5F0E9E4CEFD22ED8F
:10009400F8F5F0EE8420D21CFEADF075F008EF2FD9
:1000A400FFED33FD4007985006D5F0F222C398FDCA
:0500B4000FD5F0EA2267
:00000001FF
