:0C054D000A0ACFD6D4DACEC2B6C83A00F3
:03056A00DFFE228F
:1004A900C2B6C2B78F807F057E001204BCD2B77F67
:0304B900057E00BD
:1004BC00D3EF9400EE940040147D6E7C00ED1D7023
:0D04CC00011CED4C70F7EF1F70E61E80E381
:0104D9002200
:08055A00C2B51204A9C2B722C8
:08056200D2B51204A9C2B722B0
:1004FC00D2B17F3012055A1204B87F0C12055A1271
:0E050C0004B87F0112055A7F057E000204BC70
:10053800D2B37F0112056AC2B37FFA12056AD2B339
:050548007F6402056A5A
:1004DA00E4FD7E08C2B300EDC313FDD2B37F01125F
:1004EA00056A30B3034305807F0A12056ADEE5AF69
:0104FA0005FC
:0104FB0022DE
:02051A00AE072A
:10051C007D08C2B300EE1392B37F0A12056AD2B300
:0B052C00EEC313FE7F0112056ADDE73D
:0105370022A1
:1003AF001205387FCC12051A7F4412051A12053830
:1003BF007FCC12051A7FBE12051A1204DAAC07128F
:1003CF0004DA7508008F09E509750900F508AF040F
:1003DF00EF4209E4AC08AD09120206E4FBFA79809A
:1003EF00783D1200FB8F188E178D168C15E4FFFECB
:1003FF007D207C41AB18AA17A916A8151200FBE4A3
:0F040F00FBFAF9783F12000A12023F8E088F099C
:01041E0022BB
:04041F00AB07AA0677
:100423007C007D641202C08F157C007D64AF03AE37
:10043300021202C07E007F0ACFCDCFCECCCE1202F5
:10044300C08F16AE02AF037C007D0A1202C0AB055B
:100453007F8512055AE5152430FF120562E516243F
:1004630030FF1205627F2E120562EB2430FF020576
:010473006226
:100474001204FC7F8012055AE4F514740A2514F85A
:10048400E6FF1205620514E514C3940940ED7F8765
:1004940012055A7FA11205627FE61205621203AFAC
:0504A40012041F80F8A6
:100003000202ABE86480F8E933E83360110460F07E
:10001300ED33EC337009E8FCE9FDEAFEEBFF220463
:1000230060DED3EB9FEA9EE99DE8C2E78CF0C2F75E
:1000330095F0400CE8CCF8E9CDF9EACEFAEBCFFB2A
:1000430012027685D0F05804700320D5B3E804700B
:10005300075002B2D50202B592D5EC0460F7E4CCA6
:10006300C0E0C398F8603B94186008400DD0E0FBF3
:1000730002028DE4FBFAC9FC8028E830E406E4C9F7
:10008300FBE4CAFCE830E305E4C9CACBFCE8540747
:100093006010F8C3E913F9EA13FAEB13FBEC13FC52
:1000A300D8F130F52FC3E49CFCEF9BFFEE9AFEEDF5
:1000B30099FDD0E0FBEF4E4D4C701222DB030202A0
:1000C300B2EC2CFCEF33FFEE33FEED33FDED30E706
:1000D300EB02028DEF2BFFEE3AFEED39FDD0E0FB94
:1000E30050130BBB00030202B5ED13FDEE13FEEF3D
:0800F30013FFEC13FC02028D67
:1000FB00EC4D6011E8497017ED33EC3304600DE4FF
:10010B00FCFFFEFD22E933E8330470F80202AB1268
:10011B00027658046009E4CC248150062850090269
:10012B0002B52840030202B2C0E0EB4A7044B9802A
:10013B0006D0E0FB0202A1EF4E701CBD8008EBFF66
:10014B00EAFEE9FD80EBE98DF0A4FEE5F00201E4A7
:10015B00E9CDF9EAFEEBFFEF89F0A4FCE5F0CE89DF
:10016B00F0A42EFFE435F0CD89F0A42DFEE435F09C
:10017B008067EF4E7005BD80D780C3EF8BF0A4ACCA
:10018B00F0EE8BF0A42CFCE435F0F8EF8AF0A42C05
:10019B00E5F038FCE433CB8DF0A42CFCE5F03BF818
:1001AB00EE8AF0A42CFCE5F038F8E433CF89F0A408
:1001BB002CFCE5F038CF3400CE89F0A42FFFE5F00E
:1001CB003EFEE433C98DF0A42EFEE5F039CD8AF066
:1001DB00A42FFFE5F03EFEE43DFD33D0E0FB5007DE
:1001EB000BBB000F0202B5EC2CFCEF33FFEE33FE22
:0601FB00ED33FD02028D50
:1002010075F020800E75F010800575F0087D007E78
:10021100007F003392D530D503120315EC33401023
:10022100EF33FFEE33FEED33FDEC33FCD5F0ED2281
:0E023100E5F0247EA2D513CC92E7CDCEFF22BD
:10023F00EDD2E7CD33EC3392D524814006E4FFFEB7
:10024F00FDFC22FCE4CFCECDCC24E0501174FF8016
:10025F00EDC3CC13CCCD13CDCE13CECF13CF0470B3
:07026F00F030D5DE0203159B
:10027600E9D2E7C933E833F892D5EDD2E7CD33ECCE
:0702860033FC5002B2D52247
:10028D00EC30E7100FBF000C0EBE00080DBD0004D2
:10029D000BEB6014A2D5EB13FCED92E7FD2274FF7E
:1002AD00FCFDFEFF22E480F8A2D574FF13FC7D80D7
:0302BD00E480EFEB
:03000000020323D5
:0C032300787FE4F6D8FD75811802036AAB
:1002C000BC000BBE0029EF8DF084FFADF022E4CC22
:1002D000F875F008EF2FFFEE33FEEC33FCEE9DECEB
:1002E000984005FCEE9DFE0FD5F0E9E4CEFD22ED31
:1002F000F8F5F0EE8420D21CFEADF075F008EF2F7B
:10030000FFED33FD4007985006D5F0F222C398FD6B
:050310000FD5F0EA2208
:0E031500C3E49FFFE49EFEE49DFDE49CFC22F9
:10032F00020474E493A3F8E493A34003F68001F26C
:10033F0008DFF48029E493A3F85407240CC8C333CF
:10034F00C4540F4420C8834004F456800146F6DF9E
:10035F00E4800B010204081020408090054DE47EDC
:10036F00019360BCA3FF543F30E509541FFEE49393
:10037F00A360010ECF54C025E060A840B8E493A35A
:10038F00FAE493A3F8E493A3C8C582C8CAC583CA85
:10039F00F0A3C8C582C8CAC583CADFE9DEE780BE3D
:0105590000A1
:00000001FF
