:10005000E4FD7F6B1200967D077F191200967D06E6
:100060007F1A1200967D187F1B1200967D017F1C5F
:03007000020096F5
:0F00AF00D291D290120000C291120000C2902292
:0C00D900C291D290120000D291020000EF
:0E00BE00A2009291D290120000C290020000A7
:0D00CC00D290120000A291C29012000022FA
:020073008F08F4
:10007500E4F509E50825E0F5089291D29012000013
:10008500C2901200000509E509C3940840E5020085
:01009500CC9E
:10000000E4F50BD291F50AE50B25E0F50BD2901241
:100010000000A291E433420BC290120000050AE5F1
:080020000AC3940840E1AF0B94
:0100280022B5
:100096008F0C8D0D1200AF7FD0120073AF0C1200C3
:0900A60073AF0D1200730200D9C2
:020029008F0E38
:10002B001200AF7FD0120073AF0E1200731200AF2D
:10003B007FD11200731200008F0FD2001200BE127C
:04004B0000D9AF0F1A
:01004F00228E
:00000001FF
