:100D0C00C2B5C2B6D2B78F807F057E00120CB3C2BB
:020D1C00B722FC
:100D1E00D2B5C2B6D2B78F807F057E00120CB3C299
:020D2E00B722EA
:100CD1007F01120D0C7F06120D0C7F38120D0C7F57
:040CE1000C020D0CE8
:100C91008F3E8D3F8B40E53F7006E53E2480800905
:100CA100E53FB40108E53E24C0FF120D0CAF400240
:020CB1000D1E16
:100B3C008F228D238B248A258926E5237006E522B6
:100B4C0024808009E523B40108E52224C0FF120D9E
:100B5C000CAB24AA25A92612076DFF6010120D1EDE
:0E0B6C0074012526F526E43525F52580E422C2
:100CF90020202030303A30303A3030202000252E64
:030D090032640051
:040CE50002360000D3
:100D4200758902758C38758A38D2AFD2A9D28C22B5
:1008EB00120CD1120D427BFF7A0C79F97D01E4FFDA
:1008FB00120B3CE51E70737525FF75260D752707CA
:10090B00850828850929FB7A00790A12046D7B007A
:10091B007A00790A7D017F09120B3C7525FF75263C
:10092B000D752707851A28851B297B007A00790D01
:10093B0012046D7B007A00790D7D017F06120B3C52
:10094B007525FF75260D752707851C28851D297BA9
:10095B00007A00791012046D7B007A0079107D010A
:0F096B007F03120B3C12000E808912000E808455
:03000B00020A7C6A
:100A7C00C0E0C0D00537E53770020536C39488E571
:100A8C00369413404E7536007537000509E509702C
:100A9C00020508943CE50864809480403675080093
:100AAC00750900051BE51B7002051A943CE51A64D8
:100ABC00809480401E751A00751B00051DE51D7085
:100ACC0002051C9418E51C648094804006751C007B
:080ADC00751D00D0D0D0E032FE
:100CB300D3EF9400EE940040147D6E7C00ED1D7024
:0D0CC300011CED4C70F7EF1F70E61E80E382
:010CD0002201
:05000300252E3264000F
:0F0CE900011E0002080038021A003B021C00170F
:10000E0020A0467F0A7E00120CB320A03CC2B43062
:10001E00A0FDD2B4051EE51EC394044003E4F51EF4
:10002E00E51E1460101460181460192403701AD29F
:10003E008C7F0C8011C28C7F0F120D0C7FCA800634
:10004E007FC780027FC4120D0C30A20302022B7FE9
:10005E000A7E00120CB330A20302022BC2B430A2ED
:10006E00FDD2B4E51E24FE700302011314700302C8
:10007E00019F2402600302022B0509E509700205A7
:10008E0008C3943CE508648094804005E4F508F5C7
:10009E00097525FF7526007527038508288509290A
:1000AE007B007A00790A12046D7B007A00790A7D52
:1000BE00017F09120B3C7525FF75260075270385F8
:1000CE001A28851B297B007A00790D12046D7B009E
:1000DE007A00790D7D017F06120B3C7525FF752682
:1000EE0000752703851C28851D297B007A00791051
:1000FE0012046D7B007A0079107D017F03120B3C98
:10010E007FCA020228051BE51B7002051AC3943C28
:10011E00E51A648094804005E4F51AF51B7525FFF9
:10012E007526007527038508288509297B007A0026
:10013E00790A12046D7B007A00790A7D017F09121B
:10014E000B3C7525FF752600752703851A28851B20
:10015E00297B007A00790D12046D7B007A00790DEF
:10016E007D017F06120B3C7525FF75260075270352
:10017E00851C28851D297B007A00791012046D7B61
:10018E00007A0079107D017F03120B3C7FC70202BB
:10019E0028051DE51D7002051CC39418E51C64801E
:1001AE0094804005E4F51CF51D7525FF7526007538
:1001BE0027038508288509297B007A00790A12040D
:1001CE006D7B007A00790A7D017F09120B3C752543
:1001DE00FF752600752703851A28851B297B007A53
:1001EE0000790D12046D7B007A00790D7D017F067A
:1001FE00120B3C7525FF752600752703851C288577
:10020E001D297B007A00791012046D7B007A00792B
:10021E00107D017F03120B3C7FC4120D0C30A10325
:10022E000203FC7F0A7E00120CB330A1030203FC12
:10023E00C2B430A1FDD2B4E51E24FE70030202E664
:10024E00147003020371240260030203FCE5091516
:10025E000970021508C3E50864809480500675087D
:10026E000075093B7525FF7526007527038508283F
:10027E008509297B007A00790A12046D7B007A00C9
:10028E00790A7D017F09120B3C7525FF75260075D5
:10029E002703851A28851B297B007A00790D120405
:1002AE006D7B007A00790D7D017F06120B3C752562
:1002BE00FF752600752703851C28851D297B007A6E
:1002CE0000791012046D7B007A0079107D017F0396
:1002DE00120B3C7FCA0203F9E51B151B7002151A9F
:1002EE00C3E51A648094805006751A00751B3B7521
:1002FE0025FF7526007527038508288509297B00AB
:10030E007A00790A12046D7B007A00790A7D017FEA
:10031E0009120B3C7525FF752600752703851A28D3
:10032E00851B297B007A00790D12046D7B007A0003
:10033E00790D7D017F06120B3C7525FF7526007524
:10034E002703851C28851D297B007A00791012044D
:10035E006D7B007A0079107D017F03120B3C7FC705
:10036E000203F9E51D151D7002151CC3E51C648002
:10037E0094805006751C00751D177525FF75260097
:10038E007527038508288509297B007A00790A12CA
:10039E00046D7B007A00790A7D017F09120B3C7592
:1003AE0025FF752600752703851A28851B297B00D6
:1003BE007A00790D12046D7B007A00790D7D017F34
:1003CE0006120B3C7525FF752600752703851C2824
:1003DE00851D297B007A00791012046D7B007A004E
:1003EE0079107D017F03120B3C7FC4120D0C20A3EC
:1003FE00117F0A7E00120CB320A307C2B430A3FDF6
:03040E00D2B42243
:0A0D6200C0F9A4B0999282F88098BD
:03000800C2802291
:100BB800C280753A8A753BD0053BE53BAE3A700278
:100BC800053A144E70F2D280753A8A753BD0053BCF
:0D0BD800E53BAE3A7002053A144E70F22271
:100C3F00C280753AC3753B50E53B153BAE3A700227
:100C4F00153A4E70F3D280753AC3753B50E53B159C
:0B0C5F003BAE3A7002153A4E70F322D3
:100BE500C280753CC3753D50E53D153D7002153C11
:100BF500E53D453C70F2D280753CC3753D50E53D01
:0D0C0500153D7002153CE53D453C70F222A6
:100D3000C2807FF47E01120CB3D2807FF47E010268
:020D40000CB3F2
:100C12007580FE753A00753B087FF47E01120CB3B5
:100C2200E58025E004F580E53B153B7002153AD3DB
:0D0C3200E53B9400E53A6480948050DD229B
:100B7A007580FEE4F53AF53B7FC87E00120CB3E5BA
:100B8A008025E0F547E580C41313135401F5484561
:100B9A0047F5807FC87E00120CB3053BE53B700227
:0D0BAA00053AC39407E53A6480948040CB7F
:010BB700221B
:100D5200C2A7C2A6C2A5C2A4900D69E493F59022CF
:100AE400C2A7D2A6D2A5D2A4900D63E493F5907FB9
:100AF400017E00120CB3D2A7C2A6D2A5D2A4900D37
:100B040064E493F5907F017E00120CB3D2A7D2A6C1
:100B1400C2A5D2A4900D65E493F5907F017E0012E6
:100B24000CB3D2A7D2A6D2A5C2A4900D66E493F5C5
:080B3400907F017E00020CB36A
:04085000AB07AA0642
:100854007C007D0A1207868D417C007D0AAF03AEC1
:10086400021207867C007D0A1207868D427C007D79
:1008740064AF03AE021207867C007D0A1207868DE0
:1008840043AE02AF037C037DE8120786C2A7D2A65B
:10089400D2A5D2A4EF900D6293F5907F017E001251
:1008A4000CB3D2A7C2A6D2A5D2A4E543900D6293FD
:1008B400F5907F017E00120CB3D2A7D2A6C2A5D2B6
:1008C400A4E542900D6293F5907F017E00120CB373
:1008D400D2A7D2A6D2A5C2A4E541900D6293F59009
:0708E4007F017E00020CB34E
:100A0600ED75F00A8485F044ED75F00A84F545EF3E
:100A160075F00A8485F046EF75F00A84C2A7D2A65F
:100A2600D2A5D2A4900D6293F5907F017E00120CA0
:100A3600B3D2A7C2A6D2A5D2A4E546900D6293F57D
:100A4600907F017E00120CB3D2A7D2A6C2A5D2A473
:100A5600E545900D6293F5907F017E00120CB3D2AE
:100A6600A7D2A6D2A5C2A4E544900D6293F5907FC5
:060A7600017E00020CB33A
:0300000002097A78
:0C097A00787FE4F6D8FD7581480209C1C1
:10076D00BB010689828A83E0225002E722BBFE028A
:09077D00E32289828A83E49322BD
:10078600BC000BBE0029EF8DF084FFADF022E4CC57
:10079600F875F008EF2FFFEE33FEEC33FCEE9DEC20
:1007A600984005FCEE9DFE0FD5F0E9E4CEFD22ED66
:1007B600F8F5F0EE8420D21CFEADF075F008EF2FB0
:1007C600FFED33FD4007985006D5F0F222C398FDA1
:0507D6000FD5F0EA223E
:10041100E5312425F8E605312278223007027825D6
:10042100E475F00112081A02076D2000EB7F2ED24D
:10043100008018EF540F2490D43440D4FF30040BC3
:10044100EF24BFB41A0050032461FFE532600215A6
:10045100320535E5357002053430070D7822E47533
:10046100F00112081AEF020808020C6A7403D2079D
:100471008003E4C207F5318B228A238924E4F53213
:10048100F534F535E53260077F2012044C80F575AF
:1004910033FFC201C200C202C203C205C206C208C2
:1004A10012041AFF700D3007057F0012045DAF358D
:1004B100AE3422B4255FC2D5C20412041AFF24D07F
:1004C100B40A00501A75F00A783230D50508B6FF23
:1004D1000106C6A426F620D5047002D20380D924D1
:1004E100CFB41A00EF5004C2E5D20402065DD20176
:1004F10080C6D20080C0D20280BCD2D580BAD205DB
:1005010080B47F2012044C2002077401B5320040F0
:10051100F1120411FF12044C020485D208D20680A4
:1005210095120411FB120411FA120411F94A4B70CD
:1005310006792E7A077BFF20022EE532602A7E00A3
:100541008E827583001207DB60060EEE653370F054
:10055100C2D5EBC0E0EAC0E0E9C0E0EE1206A4D0EB
:10056100E0F9D0E0FAD0E0FB12076DFF60AAEBC022
:10057100E0EAC0E0E9C0E012044CD0E02401F9D087
:10058100E03400FAD0E0FBE5330460DCD533D980F8
:10059100877BFF7A0679A0D202809C79108002794C
:1005A10008C206C2088008D2D5790A8004790AC235
:1005B100D5E533047002F533E4FAFDFEFF120411B0
:1005C100FC7B08200113120411FD7B1030000A127C
:1005D1000411FE120411FF7B20EC3382D592D55019
:1005E10013C3E43000069FFFE49EFEE42001039D57
:1005F100FDE49CFCE4CBF8C201EC700CCFCECDCC79
:10060100E824F8F870F38017C3EF33FFEE33FEED03
:1006110033FDEC33FCEB33FB994002FB0FD8E9EBE4
:10062100300105F8D0E0C448B201C0E00AEC4D4EFB
:100631004F78207B0070C2EAB5330040BCC0E012A5
:1006410006A6D0F0D0E0200104C4C0E0C4B201C0CD
:10065100F0120435D0F0D5F0EB02048512082A051A
:100661002253059C5804F34C04EF4205A04F05A802
:0F0671004405A84905084305AE55059246059274
:1006800045059247074E5004F72D04FB2E051E2BFF
:1006900004FF23051C2007372A04B748000005166D
:1006A0003F3F3F00790AA2D5200314300509B91055
:1006B000020404B9080104A2D52006025001042056
:1006C00002689202B532005034C0E07F2030031936
:1006D0007F30A20272067205500F1206FDC202C2DE
:1006E00006C205C2087F30800F300503E9C0E01262
:1006F000044C300503D0E0F9D0E0B532CC3005171A
:100700007F30B9100C12044C7F583004077F78807A
:1007100003B9080312044C3002057F2D02044C7FFC
:10072000202008F87F2B2006F322920280CF286E2B
:10073000756C6C2900D2011204113001F8C20178E5
:100740003230D50108F60204B72D5043495812043F
:10075000112403B405004001E49007499312043DBD
:0D076000743A12043DD20375320402059C68
:100986000208EBE493A3F8E493A34003F68001F294
:1009960008DFF48029E493A3F85407240CC8C33372
:1009A600C4540F4420C8834004F456800146F6DF41
:1009B600E4800B0102040810204080900CE5E47EE0
:1009C600019360BCA3FF543F30E509541FFEE49336
:1009D600A360010ECF54C025E060A840B8E493A3FD
:1009E600FAE493A3F8E493A3C8C582C8CAC583CA28
:1009F600F0A3C8C582C8CAC583CADFE9DEE780BEE0
:010CF80000FB
:1007DB00BB010CE58229F582E5833AF583E02250D3
:1007EB0006E92582F8E622BBFE06E92582F8E2221D
:0D07FB00E58229F582E5833AF583E4932237
:10080800BB010689828A83F0225002F722BBFE01CF
:02081800F322C9
:10081A00FAE6FB0808E6F925F0F618E6CA3AF622DF
:10082A00D083D082F8E4937012740193700DA3A35D
:10083A0093F8740193F5828883E473740293686071
:06084A00EFA3A3A380DF71
:100C6A00EFB40A07740D120C75740A309811A8991A
:100C7A00B8130CC2983098FDA899C298B811F630EA
:070C8A0099FDC299F59922C2
:00000001FF
