:10033E0073686964753A0077656E64753A002E00CD
:100003001203067BFF7A03793EE4FDFF12024B7B6A
:10001300FF7A0379457D01E4FF12024B120192AF8F
:100023000D120289EF75F00A842430F519AF0D1211
:100033000289EF75F00A84E5F02430F51BAF0E1248
:100043000289EF75F00A842430F515AF0E12028988
:10005300EF75F00A84E5F02430F516AF1212028929
:10006300EF75F00A842430F51AAF12120289EF7586
:10007300F00A84E5F02430F51CAF13120289EF7502
:10008300F00A842430F517AF13120289EF75F00AD2
:1000930084E5F02430F518AB19E4FD7F061202ADB8
:1000A300AB1BE4FD7F071202AD7BFF7A03794CE4BF
:1000B300FD7F0812024BAB15E4FD7F091202ADABC5
:1000C30016E4FD7F0A1202ADAB1A7D017F06120210
:1000D300ADAB1C7D017F071202AD7BFF7A03794C28
:1000E3007D017F0812024BAB177D017F091202AD20
:1000F300AB187D017F0A1202AD7FF47E011202CF9D
:0301030002001FD8
:10031A00C2B5C2B6D2B78F807F057E001202CFC2A5
:02032A00B722F8
:10032C00D2B5C2B6D2B78F807F057E001202CFC283
:02033C00B722E6
:100306007F0112031A7F0612031A7F3812031A7F1F
:040316000C02031AB8
:1002AD008F1D8D1E8B1FE51E7006E51D2480800998
:1002BD00E51EB40108E51D24C0FF12031AAF1F028D
:0202CD00032C00
:10024B008F1D8D1E8B1F8A208921E51E7006E51DD3
:10025B0024808009E51EB40108E51D24C0FF1203AC
:10026B001AAB1FAA20A9211202EDFF601012032C5A
:0E027B0074012521F521E43520F52080E422D0
:1002CF00D3EF9400EE940040147D727C00ED1D700E
:0D02DF00011CED4C70F7EF1F70E61E80E370
:0102EC0022EF
:04034E007F02DFFE4D
:010352002288
:0303530001110095
:10020200E4F51D750B0220A007AF0B050BEF70F68E
:1002120012034E12034E12034EE4F50C30A0037586
:100222000C01750B0230A007AF0B050BEF70F6E562
:100232000B64016013E51125E0F511E50C4211058F
:080242001DE51DC3940840BB3B
:01024A002291
:10019200C2A07F147E001202CFD2A012034E12031D
:1001A2004E12034E12034ED2A020A053750B022012
:1001B200A007AF0B050BEF70F6750B0230A007AF6F
:1001C2000B050BEF70F612020285110F1202028567
:1001D200111012020285110812020285110912027F
:1001E20002851114D2A0E50F251025082509F50A6C
:1001F200B5140C850F0D85100E8508128509132282
:02028900AD07BF
:10028B00E4F97F01FEFCAB07ED54018BF0A429F9D7
:10029B00EDC313FDEF25E0FFEE33FE0CBC08E7AF1B
:0102AB000151
:0102AC00222F
:03000000020106F4
:0C010600787FE4F6D8FD75812102014DE0
:1002ED00BB010689828A83E0225002E722BBFE020F
:0902FD00E32289828A83E4932242
:10011200020003E493A3F8E493A34003F68001F200
:1001220008DFF48029E493A3F85407240CC8C333EE
:10013200C4540F4420C8834004F456800146F6DFBD
:10014200E4800B0102040810204080900353E47EF7
:10015200019360BCA3FF543F30E509541FFEE493B2
:10016200A360010ECF54C025E060A840B8E493A379
:10017200FAE493A3F8E493A3C8C582C8CAC583CAA4
:10018200F0A3C8C582C8CAC583CADFE9DEE780BE5C
:0103560000A6
:00000001FF
