:0301610002011187
:1001110020A0147F0A7E001200F320A00AC2B4308E
:08012100A0FDD2B47580AA22F2
:1000F300D3EF9400EE940040147D6E7C00ED1D70F0
:0D010300011CED4C70F7EF1F70E61E80E34D
:0101100022CC
:0A015700C0F9A4B0999282F88098D4
:03016400C286222E
:10004100C28675088A7509D00509E509AE087002EE
:100051000508144E70F2D28675088A7509D0050913
:0D006100E509AE0870020508144E70F22289
:1000C800C2867508C3750950E5091509AE0870029E
:1000D80015084E70F3D2867508C3750950E50915E1
:0B00E80009AE08700215084E70F322EC
:10006E00C286750AC3750B50E50B150B7002150A87
:10007E00E50B450A70F2D286750AC3750B50E50B77
:0D008E00150B7002150AE50B450A70F222F1
:10012900C2867FF47E011200F3D2867FF47E01023B
:0201390000F3D1
:10009B007580FE7508007509087FF47E011200F368
:1000AB00E58025E004F580E509150970021508D3F4
:0D00BB00E5099400E5086480948050DD2282
:100003007580FEE4F508F5097FC87E001200F3E56C
:100013008025E0F50CE580C41313135401F50D4559
:100023000CF5807FC87E001200F30509E509700214
:0D0033000508C39407E5086480948040CB65
:01004000229D
:10013B00C2A7C2A6C2A5C2A490015EE493F5902209
:0300000002014BAF
:0C014B00787FE4F6D8FD75810D0201619B
:00000001FF
