:071A88003030303030300037
:101A27001215CC7BFF7A1A79887D027F7812150709
:021A370080F13C
:0F1A3900D292D293121A8FC292121A8FC2932294
:0C1A7000C292D293121A8FD292021A8FE7
:0E1A4800A2009292D293121A8FC293021A8FAA
:0D1A5600D293121A8FA292C293121A8F22FD
:05199D0090000CEFF0CA
:1019A200E4A3F090000CE0FF25E0F09292D29312B3
:1019B2001A8FC293121A8F90000DE004F0E0C394C4
:0619C2000840E0021A5685
:1018F600E4900032F0D292900031F0900032E0FF96
:1019060025E0F0D293121A8F900032E0FFA292E403
:1019160033FEEF4EF0C293121A8F900031E004F0BE
:0B192600E0C3940840D5900032E0FFC1
:011931002293
:1019C800900009EFF0A3EDF0A3EBF0121A399000A4
:1019D80009E0FF12199D90000AE0FF12199D90007E
:0919E8000BE0FF12199D021A70B8
:0818B90090002BEFF0A3EDF00D
:1018C100121A3990002BE0FF12199D90002CE0FFB5
:1018D10012199D121A3990002BE004FF12199D1262
:1018E10018F690002DEFF0D200121A48121A7090DB
:0418F100002DE0FFE7
:0118F50022D0
:0F1A0F00F583E5822FF582E43583F583E493FFB9
:091A1E00AB077D407F780219C876
:041A6300EF24B0FFBD
:091A6700AB07E4FD7F780219C809
:0B196D00900022E0FE131313541FFD36
:10197800900008EFF0ED24B0FF121A67900008E01D
:1019880054F0C4540F4410FF121A67900008E05432
:051998000FFF021A67B9
:10193200E4900001F0900001E0FFC39408502B12E4
:101942001A63E4FF121A677F10121A67E49000000C
:10195200F0E4FF121A1E900000E004F0E0C394804D
:0A19620040EF900001E004F080CB9C
:01196C002258
:0518330090002EEFF013
:10183800E4900030F0900030E0FFC39408502E127E
:101848001A63E4FF121A677F10121A67E490002FD8
:10185800F090002EE0FF121A1E90002FE004F0E036
:0D186800C3948040EC900030E004F080C894
:011875002250
:1015CC007FF47E011219F17FAE121A67E4FF121A32
:1015DC00677F10121A677F40121A677F81121A6791
:1015EC007FCF121A677FA1121A677FC8121A677F02
:1015FC00A6121A677FA8121A677F3F121A677FD349
:10160C00121A67E4FF121A677FD5121A677F8012CD
:10161C001A677FD9121A677FF1121A677FDA121ACA
:10162C00677F12121A677FDB121A677F40121A67E4
:10163C007F20121A677F02121A677F8D121A677F3A
:10164C0014121A677FA4121A677FA6121A677FAF4B
:06165C00121A67021932A8
:0517EC00900033EFF056
:1017F100ED5407FF7401A807088002C333D8FC9099
:101801000034F0AF05EF131313541F24B0FF121A65
:1018110067900033E054F0C4540F4410FF121A676C
:10182100900033E0540FFF121A67900034E0FF027A
:021831001A1E7D
:0B13CD00900021EFF0A3EDF0A3EBF087
:1013D800A3E0131313541FFF900022E013131354B8
:1013E8001F6F7053900021E0900025F0900023E0DB
:1013F800FE900025E0FFD39E400302150612196DEA
:10140800900024E05407FFC374079FFF74FFA807E8
:10141800088002C313D8FCFF900022E05407FE7432
:10142800FFA806088002C333D8FC5FFF121A1E907B
:101438000025E004F080B5900021E0900025F090B0
:101448000023E0FE900025E0FFD39E502112196D85
:10145800900022E05407FF74FFA807088002C333F6
:10146800D8FCFF121A1E900025E004F080D19000ED
:1014780022E0131313541F04900026F0900024E078
:10148800131313541FFF900026E0C39F50319000A0
:1014980021E0900025F0900023E0FE900025E0FF79
:1014A800D39E5013A3E0FD1219787FFF121A1E90E5
:1014B8000025E004F080DF900026E004F080BD9075
:1014C8000021E0900025F0900023E0FE900025E048
:1014D800FFD39E5029900024121970900024E054E4
:1014E80007FFC374079FFF74FFA807088002C31390
:0E14F800D8FCFF121A1E900025E004F080C9F7
:0115060022C2
:1016EF00900019EFF0A3EDF0A3EBF0A3EAF0A3E95C
:0116FF00F0FA
:10170000E4A3F0A3F0A3F090001BE0FBA3E0FAA396
:10171000E0F9900020E0F582758300121876605A97
:1017200024E090001EF0900019E0D3947A4006E483
:10173000F0A3E004F0900019E0FFA3E0FD12197897
:10174000E490001FF090001FE0FFC39406501B9030
:10175000001EE075F006A42403F582E5F0340012C3
:101760001A0F90001FE004F080DB900019E02406BF
:0A177000F0900020E004F0021707DB
:01177A00224C
:10150700900000EFF0A3EDF0A3EBF0A3EAF0A3E95E
:01151700F0E3
:10151800E4A3F0A3F0A3F0900002E0FBA3E0FAA399
:10152800E0F9900007E0F5827583001218767003E1
:101538000215CB24E0900005F0900000E0D39478E9
:101548004006E4F0A3E004F0900000E0FFA3E0FD13
:10155800121978E4900006F0900006E0FFC39408A2
:10156800501B900005E075F010A4243DF582E5F0CD
:101578003402121A0F900006E004F080DB9000009D
:10158800E0FFA3E004FD121978E4900006F0900053
:1015980006E0FFC39408501B900005E075F010A406
:1015A8002445F582E5F03402121A0F900006E00493
:1015B800F080DB900000E02408F0900007E004F0E1
:0315C80002151FEA
:0115CB0022FD
:0D166200900028EDF0A3EBF0900027EFF0D2
:10166F00E490002AF0EFD394704009E4900027F043
:10167F00A3E004F0900027E0FFA3E0FD121978E447
:10168F0090002AF090002AE0FFC39410501B9000A6
:10169F0029E075F020A4242DF582E5F03408121A04
:1016AF000F90002AE004F080DB900027E0FFA3E01A
:1016BF0004FD121978E490002AF090002AE0FFC38D
:1016CF009410501B900029E075F020A4243DF58262
:0F16DF00E5F03408121A0F90002AE004F080DBC7
:0116EE0022D9
:0A177B0090000EEFF0900010EBF06C
:10178500E4900015F0A3F0900018EDF0900011E042
:10179500FF900018E0FDD39F504C90000EE0FF1223
:1017A500197890000EE0900017F0900010E0FF907F
:1017B5000017E0D39F5027900012E0FBA3E0FAA3A7
:1017C500E0F9A3E475F0011218A385F082F5831200
:1017D5001876FF121A1E900017E004F080CC9000D6
:0617E50018E004F080A6EC
:0117EB0022DB
:1019F100D3EF9400EE940040147D727C00ED1D70D5
:0D1A0100011CED4C70F7EF1F70E61E80E336
:011A0E0022B5
:011A8F002234
:100003000000000000000000002F000000000700B7
:10001300070000147F147F1400242A7F2A12006231
:1000230064081323003649552250000005030000DD
:1000330000001C224100000041221C000014083E65
:1000430008140008083E0808000000A0600000082B
:10005300080808080000606000000020100804027F
:10006300003E5149453E0000427F4000004261513D
:100073004946002141454B31001814127F100027D7
:1000830045454539003C4A4949300001710905039A
:1000930000364949493600064949291E00003636CB
:1000A300000000005636000000081422410000142E
:1000B300141414140000412214080002015109060B
:1000C30000324959513E007C1211127C007F49498C
:1000D3004936003E41414122007F4141221C007FBD
:1000E30049494941007F09090901003E4149497ACB
:1000F300007F0808087F0000417F41000020404145
:100103003F01007F08142241007F40404040007FB0
:10011300020C027F007F0408107F003E4141413EF4
:10012300007F09090906003E4151215E007F09193C
:1001330029460046494949310001017F0101003F39
:100143004040403F001F2040201F003F4038403FB9
:10015300006314081463000708700807006151491D
:10016300454300007F414100000618204000000085
:1001730041417F000004020102040040404040402E
:10018300000001020400002054545478007F4844C6
:10019300443800384444442000384444487F0038FD
:1001A3005454541800087E0901020018A4A4A47C26
:1001B300007F080404780000447D400000408084F0
:1001C3007D00007F102844000000417F4000007C38
:1001D30004180478007C0804047800384444443844
:1001E30000FC242424180018242418FC007C080490
:1001F300040800485454542000043F444020003C69
:100203004040207C001C2040201C003C4030403CEF
:10021300004428102844001CA0A0A07C004464547F
:100223004C44000010FE8200000000FF000000822A
:10023300FE100000020101020201000000000000A4
:1002430000000000000000000000000000F80000B3
:100253000000000000333000000000100C06100CFA
:100263000600000000000000000040C07840C07895
:100273004000043F04043F040400007088FC08307D
:100283000000001820FF211E0000F008F000E01815
:10029300000000211C031E211E0000F008887000CE
:1002A30000001E2123241927211010160E00000020
:1002B30000000000000000000000000000E018043F
:1002C3000200000000071820400000020418E000AC
:1002D30000000040201807000000404080F08040EC
:1002E30040000202010F01020200000000F00000C2
:1002F30000000101011F01010100000000000000D6
:10030300000080B07000000000000000000000004A
:1003130000000001010101010101000000000000D3
:10032300000000303000000000000000000080608A
:100333001804006018060100000000E0100808100F
:10034300E000000F102020100F00001010F8000034
:1003530000000020203F20200000007008080888CB
:10036300700000302824222130000030088888489B
:1003730030000018202020110E000000C02010F8CB
:10038300000000070424243F240000F8088888089C
:1003930008000019212020110E0000E010888818A1
:1003A3000000000F112020110E0000380808C83883
:1003B30008000000003F0000000000708808088863
:1003C3007000001C222121221C0000E010080810EC
:1003D300E0000000312222110F00000000C0C00025
:1003E300000000000030300000000000008000002A
:1003F300000000008060000000000000804020102A
:100403000800000102040810200040404040404022
:100413004000040404040404040000081020408085
:1004230000000020100804020100007048080808BA
:10043300F0000000003036010000C030C828E8108A
:10044300E0000718272423140B000000C038E00045
:100453000000203C23020227382008F8888888708F
:100463000000203F202020110E00C030080808089B
:100473003800071820202010080008F80808081082
:10048300E000203F202020100F0008F88888E808AB
:100493001000203F20202320180008F88888E8084F
:1004A3001000203F200003000000C0300808083877
:1004B300000007182020221E020008F80800000888
:1004C300F808203F210101213F20000808F808080F
:1004D30000000020203F2020000000000808F8084A
:1004E3000800C08080807F00000008F888C02818BA
:1004F3000800203F20012638200008F808000000EB
:100503000000203F20202020300008F8F800F8F8F1
:100513000800203F003F003F200008F830C00008DB
:10052300F808203F200007183F00E01008080810D3
:10053300E0000F10202020100F0008F8080808081A
:10054300F000203F210101010000E010080808101D
:10055300E0000F18242438504F0008F88888888852
:100563007000203F2000030C30200070880808082A
:1005730038000038202121221C00180808F8080838
:1005830018000000203F2000000008F808000008C1
:10059300F808001F202020201F000878880000C8CA
:1005A3003808000007380E010000F80800F80008BA
:1005B300F800033C0700073C0300081868808068C4
:1005C300180820302C03032C30200838C800C83802
:1005D30008000000203F2000000010080808C83869
:1005E30008002038262120201800000000FE020207
:1005F30002000000007F40404000000C30C00000BB
:100603000000000000010638C00000020202FE00E4
:100613000000004040407F0000000000040202028E
:1006230004000000000000000000000000000000C3
:1006330000008080808080808080000202040000AF
:1006430000000000000000000000000080808080A7
:1006530000000019242222223F2008F80080800095
:100663000000003F112020110E0000000080808058
:100673000000000E1120202011000000008080885F
:10068300F800000E112020103F20000080808080A1
:100693000000001F222222221300008080F088889D
:1006A30088180020203F20200000000080808080E8
:1006B3008000006B94949493600008F8008080801D
:1006C3000000203F210000203F2000809898000078
:1006D30000000020203F20200000000000809898A8
:1006E300000000C08080807F000008F80000808048
:1006F3008000203F24022D302000000808F800006D
:1007030000000020203F2020000080808080808027
:100713008000203F20003F20003F808000808080B9
:100723000000203F210000203F20000080808080C7
:100733000000001F202020201F00808000808000F8
:10074300000080FFA12020110E00000000808080A7
:100753008000000E112020A0FF8080808000808018
:10076300800020203F212000010000008080808045
:1007730080000033242424241900008080E080803A
:1007830000000000001F2020000080800000008087
:100793008000001F202020103F20808080000080E8
:1007A300808000010E3008060100808000800080F8
:1007B30080800F300C030C300F000080800080809D
:1007C30080000020312E0E312000808080000080C8
:1007D300808080818E701806010000808080808078
:1007E30080000021302C2221300000000000807C9A
:1007F300020200000000003F404000000000FF0034
:10080300000000000000FF0000000002027C8000E6
:1008130000000040403F000000000006010102020A
:1008230004040000000000000000000202FAFAAA1B
:10083300AAFFFFAAAAFAFA020200004272723A7AE7
:10084300424B5B52626213776600203C1CFFFFB091
:10085300B424243F3FE4E4242420020203FFFF00E6
:1008630001051D59C1FF7F010101000000F8F8488F
:100873004C4F4B4A4848F8F80000000000FFFF4483
:10088300444444444444FFFF0000202424E4E4247B
:1008930024243010FFFF10F0F000081C1F0B0C0D78
:1008A3004F6E341C0F23607F3F0080C060F8FF074A
:1008B3000200FFFFE0703C1C08000000007F7F0483
:1008C30006033F7F40404078780010218670007E09
:1008D3004A4A4A4A4A7E0000000002FE01407F4124
:1008E300417F41417F41417F40000000FC042424BB
:1008F300FCA5A6A4FC242424040080601F8080425D
:10090300462A12122A2642C04000080808FF8848D7
:10091300009848280A2C48D808000242817F00002A
:10092300404242427E424242400000504F4A48FF0A
:1009330048484800FC0000FF000000003F0101FFA1
:1009430021613F000F40807F000000908CA4A4A48D
:10095300A5A6A4A4A4A4948C040000804020180796
:100963000000003F404040700000000474D4FFD4F6
:100973007404100CB744B40C04000042437A43429D
:10098300437E4B4B4A4A42430100080808080808C3
:10099300F94A4C4848C808080800404020100C0396
:1009A30000002040403F0000000000202C2464741D
:1009B300ADA6E43424242C2400000024242515159A
:1009C3000DFE040D1714246424000003050911FF10
:1009D300118905C300E000F000F8000000000000EA
:1009E300004428FF11AA440000000000000000009A
:1009F30000000000000000000000000000000000F4
:100A030000000000000000000000000000000000E3
:100A130000000000000000000000000000000000D3
:100A23000000000083013844829292740183000025
:100A330000000000007C44C7017D7D7D7D017D7D3C
:100A43007D7D017D7D7D7D01FF00000000000001B3
:100A5300000100010001000100010000000000008E
:100A63000000000101000000000000000000000081
:100A73000000000000000000000000000000000073
:100A83000000000000000000000000000000000063
:100A93000000000000000000000000000000000053
:100AA300000000000101000000000000010100003F
:100AB300000000000000000101010101010101012A
:100AC300010101010101010101000000000000001A
:100AD300000000404040404000006D6D6D6D6D00B2
:100AE30000606060606000004040404040000000E3
:100AF30000000000000000000000000000000000F3
:100B030000000000000000000000000000000000E2
:100B130000000000000000000000000000000000D2
:100B230000000000000000000000000000000000C2
:100B330000000000000000000000000000000000B2
:100B430000000000000000000000000000000000A2
:100B5300000000DBDBDBDBDB0000DBDBDBDBDB0004
:100B630000DBDBDBDBDB0000DBDBDBDBDB0000DA1A
:100B7300DADADADA0000D8D8D8D8D80000C0C0C092
:100B8300C0C00000C0C0C0C0C00000C0C0C0C0C062
:100B93000000C0C0C0C0C000008080808080000012
:100BA3000000000000000000000000000000000042
:100BB3000000000000000000000000000000000032
:100BC3000000000000000000000000000000000022
:100BD30000000006060606060000060606060600D6
:100BE30000060606060600000606060606000006C0
:100BF3000606E666200006068606060000060606CA
:100C03000686000006060606060000868686868699
:100C130080808686068686C0C08686860606D03095
:100C23007606060606000006060606060000060609
:100C33000606060000060606060600000606060669
:100C4300060000000000000000000000000000009B
:100C53000000000000000000000000000000000091
:100C63000000000000000000000000000000000081
:100C730000000000601C00FE00010200C4182002F6
:100C83009E63B20E00FF8181FF00008040300F00A1
:100C9300000000FF0023EAAABFAAEA033F00FF0007
:100CA3000000000000000000000000000000000041
:100CB3000000000000000000000000000000000031
:100CC30000000000000000000000000000808080A1
:100CD3000000000000808080000000000000000091
:100CE3000000000000000000000000000000000001
:100CF30000000E0C080000010101010100000001C9
:100D030000000001008180808180818080808001DB
:100D13000101010000000100000001000101090CB4
:100D23000E000000000000000000000000000000B2
:100D33000000C0C0C0C0C0C0C0C0C0C0C0C0C0C030
:100D4300C0C0C0C0C0C0C0C0C000001E21404050D1
:100D5300215E001E21404050215E00000000000083
:100D63000000000000000000000000000000000080
:100D73000000000000000000000000000000000070
:100D83000000000000FFFFC1C1FFFFC1C1FFFF0062
:100D93000000000000000000000000000000000050
:100DA3000000000000000000000000000000000040
:100DB3000000FFFF80FCF3EFF3FC80FF80EEEEEE1C
:100DC300F5FBFF9CBEB6B688FF000003050911FFC3
:100DD300118905C300E000F000F8000000000000E6
:100DE300004428FF11AA4400000000000000000096
:100DF30000000000000000000000000000000000F0
:100E030000000000000000000000000000000000DF
:100E130000000000000000000000000000000000CF
:100E23000000000083013844829292740183000021
:100E330000000000007C44FF017D7D7D7D017D7D00
:100E43007D7D017D7D7D7D01FF00000000000001AF
:100E5300000100010001000100010000000000008A
:100E6300000000010100000000000000000000007D
:100E7300000000000000000000000000000000006F
:100E8300000000000000000000000000000000005F
:100E9300000000000000000000000000000000004F
:100EA300000000000101000000000000010100003B
:100EB3000000000000000001010101010101010126
:100EC3000101010101010101010000000000000016
:100ED300000000000000000000000000000000000F
:100EE300000000000000000000F8080808080808D7
:100EF3000800F8186080000000806018F800000007
:100F03002020F8000000000000E010080808081086
:100F1300E00000002020F8000000000000000000B6
:100F2300000000080808080888681800000000008E
:100F330000000000000000000000000000000000AE
:100F4300000000000000000000000000000000009E
:100F5300000000000000000000000000000000008E
:100F63000000000000000000007F010101010101F9
:100F730000007F0000010618060100007F0000004A
:100F830040407F4040000000001F20404040402080
:100F93001F00000040407F40400000000000600050
:100FA30000000000006018060100000000000000BF
:100FB300000000000000000000000000000000002E
:100FC300000000000000000000000000000000001E
:100FD300000000000000000000000000000000000E
:100FE30000000000000000000000000000000040BE
:100FF300202020C00000E0202020E000000040E08E
:101003000000000060202020E00000000000E0203D
:101013002020E0000000000040202020C00000400D
:10102300202020C00000000000000000000000009D
:1010330000000000000000000000000000000000AD
:10104300000000000000000000000000000000009D
:10105300000000000000000000000000000000008D
:101063000000000000000000000000000000000C71
:101073000A0A090C00000F0808080F000000080FF7
:10108300080000000C0809090E00000C00000F09FD
:1010930009090F00000C00000C0A0A090C00000CDF
:1010A3000A0A090C00000000000000000000000014
:1010B300000000000000000000000000000000002D
:1010C300000000000000000000000000000000001D
:1010D300000000000000000000000000000000000D
:1010E30000000000000000000000000000000000FD
:1010F30000000000000000000000000000000000ED
:1011030000000000000080808080808080800000DC
:1011130000000000000000000000000000000000CC
:1011230000000000000000000000000000000000BC
:1011330000000000000000000000000000000000AC
:1011430000000000000000000000007F030C300CD2
:10115300037F00003854545800007C0404780000D6
:101163003C40407C00000000000000000000000044
:10117300000000000000000000000000000000006C
:10118300000000000000FFAAAAAA280800FF000030
:10119300000000000000000000000000000000004C
:1011A300000000000000000000000000000000003C
:1011B3000000007F030C300C037F000026494949DF
:1011C3003200007F020408107F00FFFFFFFFFFFFD4
:1011D300FFFFFFFFFFFFFFFFFFFFFF7F7FFFBFFF5C
:1011E300DFFFFFEFEFFFEFEFFFFFBFFF6FFF7F6F4C
:1011F300FF7FDFFFFFFFFFFFFFFFFFFFFFFFFFFF9C
:10120300FFFFFFFFFFFFFFFFFFFFFFFFFFFFFFFFEB
:10121300FFFF7FBFDFFFF7FBFDFFFFFFFFFFFFFFC9
:10122300FFFFFFFFFFFFFFFFFFFFFFFFFFFFFFFDCD
:10123300FAF9E55886531397472EAD7BBF77FFDF47
:101243003FFFFFFFFFFFFFFFFFFFFFFFFFFFBFEFBB
:10125300FBFEFFFFFFFFFFFFFFFFFFFFFFFFFFFFA0
:10126300FFFFFFEFE9A7DDE3EBFFFFFFFFFFFFFF5B
:10127300FFFFFF7FCC923193D84D539065D26451D9
:101283009F3EFDF79F7FFFFFFFFFFFFFBFFAFFFFBB
:10129300FFFFFFFFFFFFFFFFFFFFFFFFFFFFFFFF5B
:1012A300FFFFFFFFFFFFFFFFFFFFFFFF7FFFBF1FEB
:1012B3003F5F2B641288A7084CB1000000000000B8
:1012C30000004827FFFD6FFFFFFFFFFFF95FFFFFF0
:1012D300FFFFFFFFFFFFFFFFFFFFFFFFFFFFFFFF1B
:1012E300FFFFFF7F5FAF2F5F374B5514992592D4D4
:1012F300B4480000000000000000000000000000EF
:10130300000060D9FF7FC9FFFFFFFFFFFFFFFDEF75
:10131300BFFFFFFFFFFFFFFFFFFFFFFFFFFFFFFF1A
:10132300FF0F34924996B96D92E2FAF9FDFEFCF98A
:10133300FEAD0000000000000000540BA24B9176AC
:10134300E5F57EDFFBFEFFFFFFFFFFFFFFFFFFFF74
:10135300FFFFFFFBFFDFDFFF7FFFFFFFFFFFFFFF5E
:10136300FFFFF8E5C8D10E7580859555C7AB53A52A
:1013730066592AA510E28DB5C2CDFAFDBEDFFEFF88
:10138300FDFEFFFFFFFFFFFFFFFFFFFFFFFFFFFF6D
:10139300FFFFFFFFFFFFFFFFFFFFFFFDFFFBFFF768
:1013A300F7FFEFFFFFFFFFDFFEDFDEFFFCEDEEEEFB
:1013B300FCFFF6F7FFFFFBFDFFFFFFFFFFFFFFFF54
:0A13C300FFFFFFFFFFFFFFFFFFFF2A
:03000000021A7C65
:0C1A7C00787FE4F6D8FD758120021A275F
:10187600BB010CE58229F582E5833AF583E0225027
:1018860006E92582F8E622BBFE06E92582F8E22271
:0D189600E58229F582E5833AF583E493228B
:1018A300A3F8E0C5F025F0F0E582158270021583F8
:0618B300E0C838F0E82255
:00000001FF
