:07039200D288D2A8D2AF22ED
:0503990012039280FE3A
:0300030002025B9B
:10025B00C0E0C0F0C083C082C0D075D000C000C069
:10026B0001C002C003C004C005C006C0071201DAFA
:10027B00D007D006D005D004D003D002D001D000D7
:0B028B00D0D0D082D083D0F0D0E03281
:10034800D3EF9400EE940040147D6E7C00ED1D7098
:0D035800011CED4C70F7EF1F70E61E80E3F6
:010365002275
:03039E0001110248
:1001DA0020A0137F0A7E0012034820A009C2B4306F
:1001EA00A0FDD2B4C28120A2137F0A7E0012034866
:1001FA0020A209C2B430A2FDD2B4C28420A1137FC6
:10020A000A7E0012034820A109C2B430A1FDD2B46B
:03021A00C2872276
:0A038800C0F9A4B0999282F88098A1
:0303A200C28022F4
:10029600C28075088A7509D00509E509AE0870029D
:1002A6000508144E70F2D28075088A7509D00509C2
:0D02B600E509AE0870020508144E70F22232
:10031D00C2807508C3750950E5091509AE0870024C
:10032D0015084E70F3D2807508C3750950E509158F
:0B033D0009AE08700215084E70F32294
:1002C300C280750AC3750B50E50B150B7002150A36
:1002D300E50B450A70F2D280750AC3750B50E50B26
:0D02E300150B7002150AE50B450A70F2229A
:10036600C2807FF47E01120348D2807FF47E0102B0
:0203760003483A
:1002F0007580FE7508007509087FF47E01120348B9
:10030000E58025E004F580E509150970021508D39C
:0D031000E5099400E5086480948050DD222A
:10021D007580FEE4F508F5097FC87E00120348E5F8
:10022D008025E0F50FE580C41313135401F5104537
:10023D000FF5807FC87E001203480509E50970029D
:0D024D000508C39407E5086480948040CB49
:01025A002281
:10037800C2A7C2A6C2A5C2A490038FE493F5902297
:10012D00C2A7D2A6D2A5D2A4900389E493F5907F5D
:10013D00017E00120348D2A7C2A6D2A5D2A4900375
:10014D008AE493F5907F017E00120348D2A7D2A6D0
:10015D00C2A5D2A490038BE493F5907F017E00128B
:10016D000348D2A7D2A6D2A5C2A490038CE493F5DE
:08017D00907F017E000203489F
:04000600AB07AA0694
:10000A007C007D0A1201858D0C7C007D0AAF03AE4F
:10001A00021201857C007D0A1201858D0D7C007D0E
:10002A0064AF03AE021201857C007D0A1201858D40
:10003A000EAE02AF037C037DE8120185C2A7D2A6E9
:10004A00D2A5D2A4EF90038893F5907F017E001287
:10005A000348D2A7C2A6D2A5D2A4E50E90038893DC
:10006A00F5907F017E00120348D2A7D2A6C2A5D27C
:10007A00A4E50D90038893F5907F017E0012034852
:10008A00D2A7D2A6D2A5C2A4E50C90038893F59074
:07009A007F017E0002034814
:030000000200A15A
:0C00A100787FE4F6D8FD7581110200E8BC
:10018500BC000BBE0029EF8DF084FFADF022E4CC5E
:10019500F875F008EF2FFFEE33FEEC33FCEE9DEC27
:1001A500984005FCEE9DFE0FD5F0E9E4CEFD22ED6D
:1001B500F8F5F0EE8420D21CFEADF075F008EF2FB7
:1001C500FFED33FD4007985006D5F0F222C398FDA8
:0501D5000FD5F0EA2245
:1000AD00020399E493A3F8E493A34003F68001F2CD
:1000BD0008DFF48029E493A3F85407240CC8C33354
:1000CD00C4540F4420C8834004F456800146F6DF23
:1000DD00E4800B010204081020408090039EE47E12
:1000ED00019360BCA3FF543F30E509541FFEE49318
:1000FD00A360010ECF54C025E060A840B8E493A3DF
:10010D00FAE493A3F8E493A3C8C582C8CAC583CA09
:10011D00F0A3C8C582C8CAC583CADFE9DEE780BEC1
:0103A100005B
:00000001FF
