:10034100E4F511AF117E001200037FF47E01120368
:0C035100230511E511C3943C40E980E451
:0A037F00C0F9A4B0999282F88098AA
:03038D00C2862203
:10027100C28675088A7509D00509E509AE087002BC
:100281000508144E70F2D28675088A7509D00509E1
:0D029100E509AE0870020508144E70F22257
:1002F800C2867508C3750950E5091509AE0870026C
:1003080015084E70F3D2867508C3750950E50915AE
:0B03180009AE08700215084E70F322B9
:10029E00C286750AC3750B50E50B150B7002150A55
:1002AE00E50B450A70F2D286750AC3750B50E50B45
:0D02BE00150B7002150AE50B450A70F222BF
:10035D00C2867FF47E01120323D2867FF47E0102D2
:02036D00032368
:1002CB007580FE7508007509087FF47E0112032303
:1002DB00E58025E004F580E509150970021508D3C2
:0D02EB00E5099400E5086480948050DD2250
:100233007580FEE4F508F5097FC87E00120323E507
:100243008025E0F50FE580C41313135401F5104521
:100253000FF5807FC87E001203230509E5097002AC
:0D0263000508C39407E5086480948040CB33
:01027000226B
:10036F00C2A7C2A6C2A5C2A4900386E493F59022A9
:10018600C2A7D2A6D2A5D2A4900380E493F5907F0D
:10019600017E00120323D2A7C2A6D2A5D2A4900341
:1001A60081E493F5907F017E00120323D2A7D2A6A5
:1001B600C2A5D2A4900382E493F5907F017E00123B
:1001C6000323D2A7D2A6D2A5C2A4900383E493F5B3
:0801D600907F017E000203236B
:04000300AB07AA0697
:100007007C007D0A1201DE8D0C7C007D0AAF03AEF9
:10001700021201DE7C007D0A1201DE8D0D7C007D5F
:1000270064AF03AE021201DE7C007D0A1201DE8D91
:100037000EAE02AF037C037DE81201DEC2A7D2A693
:10004700D2A5D2A4EF90037F93F5907F017E001293
:100057000323D2A7C2A6D2A5D2A4E50E90037F930D
:10006700F5907F017E00120323D2A7D2A6C2A5D2A4
:10007700A4E50D90037F93F5907F017E0012032383
:10008700D2A7D2A6D2A5C2A4E50C90037F93F59080
:070097007F017E000203233C
:10032300D3EF9400EE940040147D6E7C00ED1D70BD
:0D033300011CED4C70F7EF1F70E61E80E31B
:01034000229A
:030389000112025C
:10012A0020A01F7F0A7E0012032320A015C2B4302C
:10013A00A0FDD2B40512C3E512648094BC4003E466
:10014A00F51220A21F7F0A7E0012032320A215C2E5
:10015A00B430A2FDD2B41512C3E512648094805063
:10016A000375123B20A1147F0A7E0012032320A1EB
:0C017A000AC2B430A1FDD2B4E4F5122298
:0300000002009E5D
:0C009E00787FE4F6D8FD7581120200E5C1
:1001DE00BC000BBE0029EF8DF084FFADF022E4CC05
:1001EE00F875F008EF2FFFEE33FEEC33FCEE9DECCE
:1001FE00984005FCEE9DFE0FD5F0E9E4CEFD22ED14
:10020E00F8F5F0EE8420D21CFEADF075F008EF2F5D
:10021E00FFED33FD4007985006D5F0F222C398FD4E
:05022E000FD5F0EA22EB
:1000AA00020341E493A3F8E493A34003F68001F228
:1000BA0008DFF48029E493A3F85407240CC8C33357
:1000CA00C4540F4420C8834004F456800146F6DF26
:1000DA00E4800B0102040810204080900389E47E2A
:1000EA00019360BCA3FF543F30E509541FFEE4931B
:1000FA00A360010ECF54C025E060A840B8E493A3E2
:10010A00FAE493A3F8E493A3C8C582C8CAC583CA0C
:10011A00F0A3C8C582C8CAC583CADFE9DEE780BEC4
:01038C000070
:00000001FF
