:10015B00758920758DFD758BFDD28EC29FD29ED277
:06016B009CD2AFD2AC22D1
:0801BE008F993099FDC29922CE
:0801C6007513647F500201BEB5
:1001440012015B1201711201C6AF121200267FF474
:070154007E0112000380EFA1
:030023000200D602
:1000D600C0E0C0D0309827C298859915E5137007FF
:1000E60085151405138017E513B4010885151675D3
:1000F6001396800AE513B464058515120513D0D04E
:03010600D0E03214
:10000300D3EF9400EE940040147D727C00ED1D70DC
:0D001300011CED4C70F7EF1F70E61E80E33E
:0100200022BD
:0901B5006572726F7200543A0089
:10018500C2B5C2B6D2B78F807F057E00120003C20A
:02019500B7228F
:10019700D2B5C2B6D2B78F807F057E00120003C2E8
:0201A700B7227D
:100171007F011201857F061201857F381201857F7B
:040181000C020185E6
:100109008F0B8D0C8B0DE50C7006E50B2480800997
:10011900E50CB40108E50B24C0FF120185AF0D02FF
:0201290001973C
:100098008F0B8D0C8B0D8A0E890FE50C7006E50B06
:1000A80024808009E50CB40108E50B24C0FF120187
:1000B80085AB0DAA0EA90F12012BFF601012019734
:0E00C8007401250FF50FE4350EF50E80E422CD
:020026008F0841
:10002800E508C394735028E50894194022E508941C
:100038002D400A74D32508F5087B2B8009C3742D3D
:100048009508F5087B2DE4FD7F02120109800C7BE1
:10005800FF7A0179B5E4FDFF120098E50875F00A0A
:1000680084F509E50875F00A8485F00A7BFF7A01B2
:1000780079BBE4FDFF120098E5092430FBE4FD7F1D
:1000880003120109E50A2430FBE4FD7F040201099B
:030000000201A951
:0C01A900787FE4F6D8FD75811602014451
:10012B00BB010689828A83E0225002E722BBFE02D2
:09013B00E32289828A83E4932205
:00000001FF
