:100495001204AF1203D48F0B8E0A8D098C08120239
:0A04A500CE7FF47E0112047780E997
:10047700D3EF9400EE940040147D727C00ED1D7064
:0D048700011CED4C70F7EF1F70E61E80E3C6
:010494002245
:0F04E700758911E4F588F58DF58BD2ABD2AF2274
:1003D4001204E7C2A4E4FFD2A40FBF0AFAC2A430F5
:1003E400A5FD75884020A5FDE4F588AF8DEFFEAD31
:1003F4008B7C00E42DFFEC3EFEAD07FCE412010E05
:0D040400E4FBFA79887841120003120147E9
:0104110022C8
:0D04F6006572726F722020202020202000EF
:1004C300C2B5C2B6D2B78F807F057E00120477C251
:0204D300B7224E
:1004D500D2B5C2B6D2B78F807F057E00120477C22F
:0204E500B7223C
:1004AF007F011204C37F061204C37F381204C37F77
:0404BF000C0204C364
:050450002430FBE4FD77
:100455008F148D158B16E5157006E514248080091B
:10046500E515B40108E51424C0FF1204C3AF160254
:0204750004D5AC
:100412008F148D158B168A178918E5157006E51449
:1004220024808009E515B40108E51424C0FF1204F4
:10043200C3AB16AA17A9181201C8FF60101204D57F
:0E04420074012518F518E43517F51780E4222B
:0802CE008F0F8E0E8D0D8C0CBC
:1002D600E47FB87E0BFDFCAB0FAA0EA90DA80CD3CC
:1002E6001202BD50030203C77FD07EDD7D067C006F
:1002F600A80C1202BD40030203C77BA07A867901CF
:100306007800AF0FAE0EAD0DAC0C12021D8F107B38
:10031600A07A8679017800AF0FAE0EAD0DAC0C1247
:10032600021DAC00AD01AE02AF03E47B107A27F9E3
:10033600F812021D8F11E47B107A27F9F8AF0FAE81
:100346000EAD0DAC0C12021DAC00AD01AE02AF033A
:10035600E47BE87A03F9F812021D8F12E47BE87A4F
:1003660003F9F8AF0FAE0EAD0DAC0C12021DAC00CA
:10037600AD01AE02AF03E47B64FAF9F812021D8FF9
:1003860013E5102430FBE4FDFF120455E5117F014F
:10039600120450E5127F021204507B2EE4FD7F0307
:1003A600120455E5132430FBE4FD7F041204557B4B
:1003B60063E4FD7F051204557B6DE4FD7F060204B0
:0D03C600557BFF7A0479F6E4FDFF12041266
:0103D3002207
:10000300EC4D6011E8497017ED33EC3304600DE4F7
:10001300FCFFFEFD22E933E8330470F80201B3125A
:10002300017E58046009E4CC24815006285009025B
:1000330001BD2840030201BAC0E0EB4A7044B98015
:1000430006D0E0FB0201A9EF4E701CBD8008EBFF58
:10005300EAFEE9FD80EBE98DF0A4FEE5F00200EC99
:10006300E9CDF9EAFEEBFFEF89F0A4FCE5F0CE89D8
:10007300F0A42EFFE435F0CD89F0A42DFEE435F095
:100083008067EF4E7005BD80D780C3EF8BF0A4ACC3
:10009300F0EE8BF0A42CFCE435F0F8EF8AF0A42CFE
:1000A300E5F038FCE433CB8DF0A42CFCE5F03BF811
:1000B300EE8AF0A42CFCE5F038F8E433CF89F0A401
:1000C3002CFCE5F038CF3400CE89F0A42FFFE5F007
:1000D3003EFEE433C98DF0A42EFEE5F039CD8AF05F
:1000E300A42FFFE5F03EFEE43DFD33D0E0FB5007D7
:1000F3000BBB000F0201BDEC2CFCEF33FFEE33FE14
:06010300ED33FD02019541
:1001090075F020800E75F010800575F0087D007E71
:10011900007F003392D530D5031202AFEC33401083
:10012900EF33FFEE33FEED33FDEC33FCD5F0ED227A
:0E013900E5F0247EA2D513CC92E7CDCEFF22B6
:10014700EDD2E7CD33EC3392D524814006E4FFFEB0
:10015700FDFC22FCE4CFCECDCC24E0501174FF800F
:10016700EDC3CC13CCCD13CDCE13CECF13CF0470AC
:07017700F030D5DE0202AFFB
:10017E00E9D2E7C933E833F892D5EDD2E7CD33ECC7
:07018E0033FC5002B2D52240
:10019500EC30E7100FBF000C0EBE00080DBD0004CB
:1001A5000BEB6014A2D5EB13FCED92E7FD2274FF77
:1001B500FCFDFEFF22E480F8A2D574FF13FC7D80D0
:0301C500E480EFE4
:03000000020503F3
:0C050300787FE4F6D8FD7581180204959D
:1001C800BB010689828A83E0225002E722BBFE0235
:0901D800E32289828A83E4932268
:1001E10075F008758200EF2FFFEE33FECD33CDCCD5
:1001F10033CCC58233C5829BED9AEC99E582984058
:100201000CF582EE9BFEED9AFDEC99FC0FD5F0D634
:10021100E4CEFBE4CDFAE4CCF9A88222B800C1B95E
:100221000059BA002DEC8BF084CFCECDFCE5F0CB9C
:10023100F97818EF2FFFEE33FEED33FDEC33FCEBD5
:1002410033FB10D703994004EB99FB0FD8E5E4F990
:10025100FA227818EF2FFFEE33FEED33FDEC33FC7D
:10026100C933C910D7059BE99A4007EC9BFCE99A71
:10027100F90FD8E0E4C9FAE4CCFB2275F010EF2FB6
:10028100FFEE33FEED33FDCC33CCC833C810D707B6
:100291009BEC9AE899400AED9BFDEC9AFCE899F8F1
:0E02A1000FD5F0DAE4CDFBE4CCFAE4C8F92284
:0E02AF00C3E49FFFE49EFEE49DFDE49CFC2260
:1002BD00EB9FF5F0EA9E42F0E99D42F0E89C45F097
:0102CD00220E
:00000001FF
