:1007DD00759850438920438780758DFA758BFA4340
:0907ED00A890D28ED299D2AC2260
:090824001207DD12014A0206E58B
:03002300020003D5
:10000300C0E0C0D075D000C00030980B74082559EB
:0E001300F8A699C2980559D000D0D0D0E0329E
:100026004F4B0061742B636D67733D223138333259
:1000360036363338393238220D0A003E007761727F
:100046006E696E67003038393136383331313033C6
:100056003035303035463031313030304439313654
:100066003838313233363638333239463830303034
:100076003841373230303032333030333137353340
:100086003539393644393530353030323030303222
:100096003330303332374137413843303330303202
:1000A6003030303233303033333644313738383607
:1000B600333637334100534D0041544431383332DF
:1000C600363633383932383B0D0A004154480D0A6A
:1000D600004E4F20434152524945520052494E4725
:1000E600004154410D0A00415445300D0A00415467
:1000F6002B434E4D493D322C310D0A0041542B43C2
:100106005245473F0D0A0041542B434D47533D345A
:10011600370D0A0041542B434D47463D300D0A002A
:1001260041542B434D47463D310D0A0041542B4364
:100136004D47523D310D0A0041542B434D47443D36
:04014600310D0A006D
:03083C000159005F
:1004DE0012080F7580FF7BFF7A017926120795753A
:1004EE005DFF755E00755F267B007A007908120548
:1004FE00E8E94A4B60E912083512080F7BFF7A00D3
:10050E007929120795755DFF755E00755F417B0059
:10051E007A0079081205E8E94A4B60E97F027E000D
:10052E0012083912080F7BFF7A0079431207957F64
:10053E001A12082D755DFF755E00755F267B007AB9
:10054E000079081205E8E94A4B60E97F047E001243
:05055E00083902080F3E
:1005630012080F7580FF7BFF7A01791A12079575C0
:100573005DFF755E00755F267B007A0079081205C2
:10058300E8E94A4B60E912083512080F7BFF7A014C
:10059300790D120795755DFF755E00755F417B00F0
:1005A3007A0079081205E8E94A4B60E97F027E0088
:1005B30012083912080F7BFF7A00794B1207957FD7
:1005C3001A12082D755DFF755E00755F267B007A34
:1005D3000079081205E8E94A4B60E97F047E0012BE
:0505E300083902080FB9
:1001E60012080F7580FF755DFF755E00755FBC7B3D
:1001F600007A0079081205E8E94A4B60E9120835E9
:1002060012080F7BFF7A017926120795755DFF7537
:100216005E00755F267B007A0079081205E8E94AD8
:100226004B60E97F027E0012083912080F12078F11
:10023600755DFF755E00755F267B007A0079081292
:1002460005E8E94A4B60E97F047E0012083912048A
:10025600DE7BFF7A01793E120795755DFF755E00BC
:10026600755F267B007A0079081205E8E94A4B603B
:0B027600E97F087E0012083902080F23
:1002810012080F7580FF755DFF755E00755FBC7BA1
:10029100007A0079081205E8E94A4B60E91208354D
:1002A10012080F7BFF7A017926120795755DFF759C
:1002B1005E00755F267B007A0079081205E8E94A3D
:1002C1004B60E97F027E0012083912080F12078F76
:1002D100755DFF755E00755F267B007A00790812F7
:1002E10005E8E94A4B60E97F047E001208391205EE
:1002F100637BFF7A01793E120795755DFF755E009C
:10030100755F267B007A0079081205E8E94A4B609F
:0B031100E97F087E0012083902080F87
:10031C0012080F7580FF755DFF755E00755FBC7B05
:10032C00007A0079081205E8E94A4B60E9120835B1
:10033C0012080F7BFF7A01791A120795755DFF750C
:10034C005E00755F267B007A0079081205E8E94AA1
:10035C004B60E97F027E0012083912080F12078FDA
:10036C00755DFF755E00755F267B007A007908125B
:10037C0005E8E94A4B60E97F047E00120839120552
:10038C00637BFF7A01793E120795755DFF755E0000
:10039C00755F267B007A0079081205E8E94A4B6004
:0B03AC00E97F087E0012083902080FEC
:1003B70012080F7580FF755DFF755E00755FBC7B6A
:1003C700007A0079081205E8E94A4B60E912083516
:1003D70012080F7BFF7A01791A120795755DFF7571
:1003E7005E00755F267B007A0079081205E8E94A06
:1003F7004B60E97F027E0012083912080F12078F3F
:10040700755DFF755E00755F267B007A00790812BF
:1004170005E8E94A4B60E97F047E001208391205B6
:10042700637BFF7A01793E120795755DFF755E0064
:10043700755F267B007A0079081205E8E94A4B6068
:0B044700E97F087E0012083902080F50
:1006E50012080F7580FF7BFF7A0079BF1207957599
:1006F5005DFF755E00755F267B007A00790812053F
:10070500E8E94A4B60E912083512080F7FE87E03D5
:100715001207BF7BFF7A0079D1120795755DFF75CA
:100725005E00755F267B007A0079081205E8E94AC4
:0D0735004B60E97F047E0012083902080FB6
:1007420012080F7580FF7BFF7A0079BF1207957F31
:10075200647E001207BF12083512080F7FF47E0173
:100762001207BF7BFF7A0079D1120795755DFF757D
:100772005E00755FD77B007A0079081205E8E94AC6
:0D0782004B60E97F027E0012083902080F6B
:10066A0012080F7580FF755DFF755E00755FE27B8E
:10067A00007A0079081205E8E94A4B60E912083560
:10068A007BFF7A0079E7120795755DFF755E007545
:10069A005F267B007A0079081205E8E94A4B60E98F
:1006AA007F027E0012083912080F7FF47E011207BA
:1006BA00BF7BFF7A0079D1120795755DFF755E00E1
:1006CA00755F267B007A0079081205E8E94A4B60D3
:0B06DA00E97F047E0012083902080FBF
:08082D008F993099FDC2992258
:06078F007BFF7A017932C4
:100795008B5A8A5B895CAB5AAA5BA95C1207F6FF88
:1007A500601712082D7F027E001207BF7401255CB9
:0A07B500F55CE4355BF55B80DD22A6
:10080F00E4F55974082559F8E4F60559E559B4513A
:05081F00F2E4F559228E
:040835007F017E00C1
:030839008F80228B
:10014A0012080F7BFF7A0079ED120795755DFF752E
:10015A005E00755F267B007A0079081205E8E94A95
:10016A004B60E97FFE7E0012083912080F7BFF7A86
:10017A000079F4120795755DFF755E00755F267B41
:10018A00007A0079081205E8E94A4B60E97FFD80A8
:10019A00417BFF7A017902120795755DFF755E0052
:1001AA00755F267B007A0079081205E8E94A4B60F8
:1001BA00E9E511B43006E5136431600AE511B4309B
:1001CA000FE513B4350A7FFB7E0012083902080FC7
:0C01DA007FF77E0012083912080F80B574
:1007BF00D3EF9400EE940040147D6E7C00ED1D701D
:0D07CF00011CED4C70F7EF1F70E61E80E37B
:0107DC0022FA
:03000000020452A5
:0C045200787FE4F6D8FD758165020499FE
:1007F600BB010689828A83E0225002E722BBFE0201
:09080600E32289828A83E4932233
:1005E8008B5A8A5B895CAB5DAA5EA95F1207F660CD
:1005F80063AB5AAA5BA95C1207F6605F855D6085EC
:100608005E61855F628B638A648965AB60AA61A954
:10061800621207F6FF6023AB63AA64A9651207F6A6
:100628006F7017042562F562E43561F56174012580
:1006380065F565E43564F56480D1AB60AA61A962AB
:100648001207F67002800D7401255CF55CE4355BD9
:10065800F55B809DAB5AAA5BA95C227B007A007986
:0206680000226E
:10045E00020824E493A3F8E493A34003F68001F288
:10046E0008DFF48029E493A3F85407240CC8C3339F
:10047E00C4540F4420C8834004F456800146F6DF6E
:10048E00E4800B010204081020408090083CE47EBA
:10049E00019360BCA3FF543F30E509541FFEE49363
:1004AE00A360010ECF54C025E060A840B8E493A32A
:1004BE00FAE493A3F8E493A3C8C582C8CAC583CA55
:1004CE00F0A3C8C582C8CAC583CADFE9DEE780BE0D
:01083F0000B8
:00000001FF
