:10159B00D3EF9400EE940040147D6E7C00ED1D7033
:0D15AB00011CED4C70F7EF1F70E61E80E391
:0115B8002210
:0A16230025303264002530346400E5
:1013AA00015A00015B000122FF0159FF02270038A0
:1013BA000253003B02570006022507DE025D000CBD
:1013CA00025F0019022300000229000002550000F2
:0C13DA00026100000263000002650000D8
:10000E0030A0030200CA7F0A7E0012159B30A003A7
:10001E000200CA30A0FDD2B4055AE55AC394074077
:10002E0003E4F55AE55B7049E55AB4070050429077
:10003E000044F828287302005902005F02006A0289
:10004E00006E02007202007602007AD28C7F0C8063
:10005E001DC28C7F0F1215CD7FCB80127FC8800EF4
:10006E007FC5800A7F8580067F8880027F8B121570
:10007E00CDE55B64017045E55AB40700503E900033
:10008E0093F82828730200A80200AC0200B5020003
:10009E00B90200BD0200C10200C57F0C801B7F0F9C
:1000AE001215CD7FCB80127FC8800E7FC5800A7F50
:1000BE008580067F8880027F8B1215CD20A31B7F43
:1000CE000A7E0012159B20A31130A3FDD2B4055B4E
:1000DE00E55BD394014003E4F55B30A20302050413
:1000EE007F0A7E0012159B30A20302050430A2FD8A
:1000FE00D2B4E55B600302034BE55A24FE60611443
:10010E0070030201B01470030201F21470030202B4
:10011E00231470030202662405600302034B0528B4
:10012E00E52870020527C3943CE52764809480403F
:10013E0005E4F527F528750BFF750C16750D23854F
:10014E00270E85280F7B007A00792B12098D7B00F4
:10015E007A00792B7D017F0A1213EB7FCB020348C5
:10016E000554E55470020553C3943CE553648094E2
:10017E00804005E4F553F554750BFF750C16750D9F
:10018E002385530E85540F7B007A00792E12098D2C
:10019E007B007A00792E7D017F071213EB7FC80258
:1001AE0003480558E55870020557C39418E557647F
:1001BE008094804005E4F557F558750BFF750C16C5
:1001CE00750D2385570E85580F7B007A00793112F5
:1001DE00098D7B007A0079317D017F041213EB7F4C
:1001EE00C50203480526E52670020525750BFF7529
:1001FE000C16750D2885250EF50F7B007A007934C7
:10020E0012098D7B007A007934E4FD7F021213EB24
:10021E007F85020348055EE55E7002055DD3940C92
:10022E00E55D648094804006755D00755E01750B1A
:10023E00FF750C16750D23855D0E855E0F7B007A9E
:10024E0000793712098D7B007A007937E4FD7F073C
:10025E001213EB7F88020348AE25AF267C017D90FA
:10026E0012110AED4C601DAE25AF267C007D0412E6
:10027E00110AED4C701BAE25AF26FC7D6412110ADF
:10028E00ED4C600DE55E6402455D7010755C1D8081
:10029E000BE55E6402455D7003755C1CE55E6401F2
:1002AE00455D6030E55E6403455D6028E55E64058E
:1002BE00455D6020E55E6407455D6018E55E640897
:1002CE00455D6010E55E640A455D6008E55E640CA0
:1002DE00455D7003755C1FE55E6404455D6018E561
:1002EE005E6406455D6010E55E6409455D6008E587
:1002FE005E640B455D7003755C1E0560E560700203
:10030E00055FD3955C7480F8655F984006755F0055
:10031E00756001750BFF750C16750D23855F0E85C7
:10032E00600F7B007A00793A12098D7B007A007992
:10033E003AE4FD7F0A1213EB7F8B1215CDE55B6459
:10034E00016003020504E55A24FE60611470030285
:10035E0003FD14700302043F147003020481147031
:10036E00030204C2240560030205040524E524707B
:10037E00020523C3943CE523648094804005E4F594
:10038E0023F524750BFF750C16750D2385230E852D
:10039E00240F7B007A00793D12098D7B007A00795B
:1003AE003D7D017F0A1213EB7FCB020501052AE585
:1003BE002A70020529C3943CE52964809480400587
:1003CE00E4F529F52A750BFF750C16750D23852995
:1003DE000E852A0F7B007A00794012098D7B007AF8
:1003EE000079407D017F071213EB7FC802050105DE
:1003FE0056E55670020555C39418E55564809480F1
:10040E004005E4F555F556750BFF750C16750D2365
:10041E0085550E85560F7B007A00794312098D7B28
:10042E00007A0079437D017F041213EB7FC502052C
:10043E00010566E56670020565C39418E56564807E
:10044E0094804005E4F565F566750BFF750C167521
:10045E000D2385650E85660F7B007A00794612099D
:10046E008D7B007A007946E4FD7F041213EB7F85C5
:10047E000205010564E56470020563C3943CE563FF
:10048E00648094804005E4F563F564750BFF750C8C
:10049E0016750D2385630E85640F7B007A007949EE
:1004AE0012098D7B007A007949E4FD7F071213EB68
:1004BE007F88803F0562E56270020561C3943CE56A
:1004CE0061648094804005E4F561F562750BFF75FB
:1004DE000C16750D2385610E85620F7B007A0079EF
:1004EE004C12098D7B007A00794CE4FD7F0A1213C1
:1004FE00EB7F8B1215CD30A10302091B7F0A7E0004
:10050E0012159B30A10302091B30A1FDD2B4E55B8D
:10051E006003020769E55A24FE6060147003020549
:10052E00CA14700302060B14700302063D14700306
:10053E0002068224056003020769E5281528700269
:10054E001527C3E52764809480500675270075280B
:10055E003B750BFF750C16750D2385270E85280F21
:10056E007B007A00792B12098D7B007A00792B7D26
:10057E00017F0A1213EB7FCB020766E55415547008
:10058E00021553C3E553648094805006755300756D
:10059E00543B750BFF750C16750D2385530E855444
:1005AE000F7B007A00792E12098D7B007A00792E4E
:1005BE007D017F071213EB7FC8020766E5581558B9
:1005CE0070021557C3E55764809480500675570026
:1005DE00755817750BFF750C16750D2385570E85FF
:1005EE00580F7B007A00793112098D7B007A0079E1
:1005FE00317D017F041213EB7FC5020766E52615D8
:10060E002670021525750BFF750C16750D288525A0
:10061E000E85260F7B007A00793412098D7B007AC5
:10062E00007934E4FD7F021213EB7F85020766E545
:10063E005E155E7002155DC3E55E9401E55D648036
:10064E0094805006755D00755E0C750BFF750C166B
:10065E00750D23855D0E855E0F7B007A007937124E
:10066E00098D7B007A007937E4FD7F071213EB7F4B
:10067E0088020766AE25AF267C017D9012110AED29
:10068E004C601DAE25AF267C007D0412110AED4C88
:10069E00701BAE25AF26FC7D6412110AED4C600D69
:1006AE00E55E6402455D7010755C1D800BE55E6451
:1006BE0002455D7003755C1CE55E6401455D60304E
:1006CE00E55E6403455D6028E55E6405455D60207A
:1006DE00E55E6407455D6018E55E6408455D601083
:1006EE00E55E640A455D6008E55E640C455D700379
:1006FE00755C1FE55E6404455D6018E55E64064545
:10070E005D6010E55E6409455D6008E55E640B455D
:10071E005D7003755C1EE56015607002155FC3E5C4
:10072E00609401E55F648094805006755F00855C7F
:10073E0060750BFF750C16750D23855F0E85600FAA
:10074E007B007A00793A12098D7B007A00793AE4BF
:10075E00FD7F0A1213EB7F8B1215CDE55B640160F2
:10076E000302091BE55A24FE606014700302081987
:10077E0014700302085A14700302089A14700302CC
:10078E0008DA2405600302091BE5241524700215FE
:10079E0023C3E52364809480500675230075243BA3
:1007AE00750BFF750C16750D2385230E85240F7B97
:1007BE00007A00793D12098D7B007A00793D7D012A
:1007CE007F0A1213EB7FCB020918E52A152A700255
:1007DE001529C3E529648094805006752900752A71
:1007EE003B750BFF750C16750D2385290E852A0F8B
:1007FE007B007A00794012098D7B007A0079407D6A
:10080E00017F071213EB7FC8020918E556155670C3
:10081E00021555C3E55564809480500675550075D4
:10082E005617750BFF750C16750D2385550E8556CF
:10083E000F7B007A00794312098D7B007A00794391
:10084E007D017F041213EB7FC5020918E56615665C
:10085E0070021565C3E56564809480500675650069
:10086E00756617750BFF750C16750D2385650E8550
:10087E00660F7B007A00794612098D7B007A00792B
:10088E0046E4FD7F041213EB7F85807EE5641564DC
:10089E0070021563C3E5636480948050067563002F
:1008AE0075643B750BFF750C16750D2385630E85F0
:1008BE00640F7B007A00794912098D7B007A0079EA
:1008CE0049E4FD7F071213EB7F88803EE5621562D7
:1008DE0070021561C3E561648094805006756100F5
:1008EE0075623B750BFF750C16750D2385610E85B4
:1008FE00620F7B007A00794C12098D7B007A0079A9
:10090E004CE4FD7F0A1213EB7F8B1215CDE55B6075
:10091E0004052280037522FFE55B700305592275DD
:03092E0059FF224C
:1015CD00C2B5C2B6D2B78F807F057E0012159BC201
:0215DD00B72233
:1015DF00D2B5C2B6D2B78F807F057E0012159BC2DF
:0215EF00B72221
:1015B9007F011215CD7F061215CD7F381215CD7F0B
:0415C9000C0215CD2E
:101579008F678D688B69E5687006E5672480800947
:10158900E568B40108E56724C0FF1215CDAF69020B
:0215990015DF5C
:1013EB008F088D098B0A8A0B890CE5097006E508B5
:1013FB0024808009E509B40108E50824C0FF121513
:10140B00CDAB0AAA0BA90C12109CFF60101215DFB2
:0E141B007401250CF50CE4350BF50B80E42272
:0A162D00C0F9A4B0999282F88098E9
:03000300C2802296
:1014A000C280751C8A751DD0051DE51DAE1C70021D
:1014B000051C144E70F2D280751C8A751DD0051D56
:0D14C000E51DAE1C7002051C144E70F222DA
:10152700C280751CC3751D50E51D151DAE1C7002CC
:10153700151C4E70F3D280751CC3751D50E51D1523
:0B1547001DAE1C7002151C4E70F3223C
:1014CD00C280751EC3751F50E51F151F7002151EB6
:1014DD00E51F451E70F2D280751EC3751F50E51FA6
:0D14ED00151F7002151EE51F451E70F2222E
:1015F100C2807FF47E0112159BD2807FF47E0102AE
:02160100159B37
:1014FA007580FE751C00751D087FF47E0112159B10
:10150A00E58025E004F580E51D151D7002151CD344
:0D151A00E51D9400E51C6480948050DD22E6
:101429007580FEE4F51CF51D7FC87E0012159BE54D
:101439008025E0F570E580C41313135401F5714557
:1014490070F5807FC87E0012159B051DE51D700291
:0D145900051CC39407E51C6480948040CB03
:011466002263
:10160300C2A7C2A6C2A5C2A4901634E493F5902241
:10135200C2A7D2A6D2A5D2A490162EE493F5907F6E
:10136200017E0012159BD2A7C2A6D2A5D2A49016C6
:101372002FE493F5907F017E0012159BD2A7D2A68F
:10138200C2A5D2A4901630E493F5907F017E00129C
:10139200159BD2A7D2A6D2A5C2A4901631E493F58A
:0813A200907F017E0002159B03
:0411B500AB07AA06D4
:1011B9007C007D0A1210B58D6A7C007D0AAF03AEF2
:1011C900021210B57C007D0A1210B58D6B7C007D72
:1011D90064AF03AE021210B57C007D0A1210B58D02
:1011E9006CAE02AF037C037DE81210B5C2A7D2A68C
:1011F900D2A5D2A4EF90162D93F5907F017E00120F
:10120900159BD2A7C2A6D2A5D2A4E56C90162D93A0
:10121900F5907F017E0012159BD2A7D2A6C2A5D256
:10122900A4E56B90162D93F5907F017E0012159B16
:10123900D2A7D2A6D2A5C2A4E56A90162D93F5909D
:071249007F017E0002159BEE
:1012DC00ED75F00A8485F06DED75F00A84F56EEF0E
:1012EC0075F00A8485F06FEF75F00A84C2A7D2A658
:1012FC00D2A5D2A490162D93F5907F017E001215E5
:10130C009BD2A7C2A6D2A5D2A4E56F90162D93F5B9
:10131C00907F017E0012159BD2A7D2A6C2A5D2A4A3
:10132C00E56E90162D93F5907F017E0012159BD2E1
:10133C00A7D2A6D2A5C2A4E56D90162D93F5907FE9
:06134C00017E0002159B6A
:101467002020202030303A30303A303020202020E1
:101477000020203030303020303020303020200025
:10148700253032640025303464002020202030309D
:091497002030302030302020000C
:0413E600027200008F
:10161300758902758C38758A38D2AFD2A9D28C22DB
:100C8D001215B9121613E55B6003020DABE55A6040
:100C9D0003020DA4E559701E7F011215CD7BFF7A5D
:100CAD001479677D01E4FF1213EB7BFF7A147978D9
:100CBD00E4FDFF1213EB750BFF750C14750D878595
:100CCD00270E85280F7B007A00792B12098D7B006A
:100CDD007A00792B7D017F0A1213EB750BFF750CD2
:100CED0014750D8785530E85540F7B007A00792E70
:100CFD0012098D7B007A00792E7D017F071213EB8F
:100D0D00750BFF750C14750D8785570E85580F7B68
:100D1D00007A00793112098D7B007A0079317D01DD
:100D2D007F041213EB750BFF750C14750D8C852557
:100D3D000E85260F7B007A00793412098D7B007A9F
:100D4D00007934E4FD7F021213EB750BFF750C1463
:100D5D00750D87855D0E855E0F7B007A00793712E4
:100D6D00098D7B007A007937E4FD7F071213EB754F
:100D7D000BFF750C14750D87855F0E85600F7B005D
:100D8D007A00793A12098D7B007A00793AE4FD7F79
:100D9D000A1213EB12000EE55A600312000EE55B0A
:100DAD0064016003020EC5E55A6003020EBEE52222
:100DBD00701E7F011215CD7BFF7A1479677D01E4DA
:100DCD00FF1213EB7BFF7A147991E4FDFF1213EB05
:100DDD00750BFF750C14750D8785290E852A0F7BF4
:100DED00007A00794012098D7B007A0079407D01EF
:100DFD007F071213EB750BFF750C14750D87855559
:100E0D000E85560F7B007A00794312098D7B007A8F
:100E1D000079437D017F041213EB750BFF750C14E4
:100E2D00750D8785610E85620F7B007A00794C12F6
:100E3D00098D7B007A00794CE4FD7F0A1213EB7566
:100E4D000BFF750C14750D8785630E85640F7B0084
:100E5D007A00794912098D7B007A007949E4FD7F8A
:100E6D00071213EB750BFF750C14750D8785650E49
:100E7D0085660F7B007A00794612098D7B007A001A
:100E8D007946E4FD7F041213EB750BFF750C147599
:100E9D000D8785230E85240F7B007A00793D12097D
:100EAD008D7B007A00793D7D017F0A1213EB1200D4
:100EBD000EE55A600312000EE558B5561BE557B501
:100ECD005516E554B52A11E553B5290CE528B52479
:100EDD0007E527B52302C2B4E5562566FFE555356E
:100EED0065FEEF65587003EE65576003020C93E5E0
:100EFD002A2564FFE5293563FEEF65547003EE6521
:100F0D00536003020C93E5242562FFE5233561FE52
:100F1D00EF65287003EE65276003020C93D2B402CF
:020F2D000C9323
:03000B00020F2FB2
:100F2F00C0E0C0F0C0D075D000C000C004C005C084
:100F3F0006C0070573E57370020572C39488E572E6
:100F4F009413500302108B7572007573000528E51A
:100F5F002870020527943CE5276480948050030293
:100F6F00108B7527007528000554E5547002055342
:100F7F00943CE55364809480500302108B755300AA
:100F8F007554000558E558700205579418E55764D5
:100F9F00809480500302108B7557007558000560C0
:100FAF00E5607002055FAE25AF267C017D901211C2
:100FBF000AED4C601DAE25AF267C007D0412110A90
:100FCF00ED4C701BAE25AF26FC7D6412110AED4C63
:100FDF00600DE55E6402455D7010755C1D800BE56C
:100FEF005E6402455D7003755C1CE55E6401455DE2
:100FFF006030E55E6403455D6028E55E6405455D30
:10100F006020E55E6407455D6018E55E6408455D38
:10101F006010E55E640A455D6008E55E640C455D41
:10102F007003755C1FE55E6404455D6018E55E64E2
:10103F0006455D6010E55E6409455D6008E55E6428
:10104F000B455D7003755C1ED3E560955C7480F88D
:10105F00655F984027755F00756001055EE55E70FE
:10106F0002055DD3940CE55D64809480400E755D40
:10107F0000755E010526E52670020525D007D0060E
:0D108F00D005D004D000D0D0D0F0D0E03299
:0300000002125099
:0C125000787FE4F6D8FD758173021297D8
:10109C00BB010689828A83E0225002E722BBFE0252
:0910AC00E32289828A83E4932285
:1010B500BC000BBE0029EF8DF084FFADF022E4CC1F
:1010C500F875F008EF2FFFEE33FEEC33FCEE9DECE8
:1010D500984005FCEE9DFE0FD5F0E9E4CEFD22ED2E
:1010E500F8F5F0EE8420D21CFEADF075F008EF2F78
:1010F500FFED33FD4007985006D5F0F222C398FD69
:051105000FD5F0EA2205
:10110A00C2D5EC30E709B2D5E4C39DFDE49CFCEE00
:10111A0030E715B2D5E4C39FFFE49EFE1210B5C3B3
:10112A00E49DFDE49CFC80031210B530D507C3E4AE
:06113A009FFFE49EFE226F
:10093100E517240BF8E60517227808300702780B33
:10094100E475F00112117F02109C2000EB7F2ED282
:10095100008018EF540F2490D43440D4FF30040B9E
:10096100EF24BFB41A0050032461FFE5186002159B
:1009710018051BE51B7002051A30070D7808E47590
:10098100F00112117FEF02116D0215527403D207AB
:100991008003E4C207F5178B088A09890AE4F51870
:1009A100F51AF51BE51860077F2012096C80F575B3
:1009B10019FFC201C200C202C203C205C206C208B7
:1009C10012093AFF700D3007057F0012097DAF1B38
:1009D100AE1A22B4255FC2D5C20412093AFF24D04F
:1009E100B40A00501A75F00A781830D50508B6FF18
:1009F1000106C6A426F620D5047002D20380D924AC
:100A0100CFB41A00EF5004C2E5D204020B7DD2012B
:100A110080C6D20080C0D20280BCD2D580BAD205B5
:100A210080B47F2012096C2002077401B5180040C0
:100A3100F1120931FF12096C0209A5D208D2068010
:100A410095120931FB120931FA120931F94A4B7039
:100A510006794E7A0C7BFF20022EE518602A7E0073
:100A61008E8275830012114060060EEE651970F0DA
:100A7100C2D5EBC0E0EAC0E0E9C0E0EE120BC4D0A1
:100A8100E0F9D0E0FAD0E0FB12109CFF60AAEBC0C5
:100A9100E0EAC0E0E9C0E012096CD0E02401F9D03D
:100AA100E03400FAD0E0FBE5190460DCD519D98007
:100AB100877BFF7A0B79C0D202809C791080027902
:100AC10008C206C2088008D2D5790A8004790AC210
:100AD100D5E519047002F519E4FAFDFEFF1209319A
:100AE100FC7B08200113120931FD7B1030000A1232
:100AF1000931FE120931FF7B20EC3382D592D550AA
:100B010013C3E43000069FFFE49EFEE42001039D31
:100B1100FDE49CFCE4CBF8C201EC700CCFCECDCC53
:100B2100E824F8F870F38017C3EF33FFEE33FEEDDE
:100B310033FDEC33FCEB33FB994002FB0FD8E9EBBF
:100B4100300105F8D0E0C448B201C0E00AEC4D4ED6
:100B51004F78207B0070C2EAB5190040BCC0E0129A
:100B61000BC6D0F0D0E0200104C4C0E0C4B201C083
:100B7100F0120955D0F0D5F0EB0209A512118F0A38
:100B810042530ABC580A134C0A0F420AC04F0AC802
:0F0B9100440AC8490A28430ACE550AB2460AB296
:100BA000450AB2470C6E500A172D0A1B2E0A3E2B1F
:100BB0000A1F230A3C200C572A09D74800000A368E
:100BC0003F3F3F00790AA2D5200314300509B91030
:100BD000020404B9080104A2D52006025001042031
:100BE00002689202B518005034C0E07F203003192B
:100BF0007F30A20272067205500F120C1DC202C293
:100C000006C205C2087F30800F300503E9C0E0123C
:100C1000096C300503D0E0F9D0E0B518CC300517E9
:100C20007F30B9100C12096C7F583004077F788030
:100C300003B9080312096C3002057F2D02096C7F8D
:100C4000202008F87F2B2006F322920280CF286E06
:100C5000756C6C2900D2011209313001F8C201789B
:100C60001830D50108F60209D72D5043495812090A
:100C7000312403B405004001E4900C699312095D2E
:0D0C8000743A12095DD203751804020ABC13
:10125C00020C8DE493A3F8E493A34003F68001F20F
:10126C0008DFF48029E493A3F85407240CC8C33393
:10127C00C4540F4420C8834004F456800146F6DF62
:10128C00E4800B01020408102040809013AAE47E35
:10129C00019360BCA3FF543F30E509541FFEE49357
:1012AC00A360010ECF54C025E060A840B8E493A31E
:1012BC00FAE493A3F8E493A3C8C582C8CAC583CA49
:1012CC00F0A3C8C582C8CAC583CADFE9DEE780BE01
:0113EA000002
:10114000BB010CE58229F582E5833AF583E0225064
:1011500006E92582F8E622BBFE06E92582F8E222AE
:0D116000E58229F582E5833AF583E49322C8
:10116D00BB010689828A83F0225002F722BBFE0161
:02117D00F3225B
:10117F00FAE6FB0808E6F925F0F618E6CA3AF62271
:10118F00D083D082F8E4937012740193700DA3A3EF
:10119F0093F8740193F5828883E473740293686003
:0611AF00EFA3A3A380DF03
:10155200EFB40A07740D12155D740A309811A89938
:10156200B8130CC2983098FDA899C298B811F630F9
:0715720099FDC299F59922D1
:00000001FF
