:1005E800E4FD7F6B12067F7D077F1912067F7D066B
:1005F8007F1A12067F7D187F1B12067F7D017F1CE4
:0306080002067F68
:10066600759850438920438780758DFA758BFA43B8
:09067600A890D28ED299D2AC22D8
:100492001206661205E87F3B1205C4AC06AD07ECF6
:1004A20012002B8F478E468D458C447F3D1205C42A
:1004B200AC06AD07EC12002B8F4B8E4A8D498C484F
:1004C2007F3F1205C4AC06AD07EC12002B8F4F8E96
:1004D2004E8D4D8C4C7F431205C4AC06AD07EC1219
:0F04E200002B8F538E528D518C5012028E80A79B
:03002300020003D5
:10000300C0E0C0D075D000C00030980B7408251C28
:0E001300F8A699C298051CD000D0D0D0E032DB
:100365008B548A5589568C578D58C3E557648094AC
:1003750080500FC3E49558F558E49557F557742DFB
:100385008008AB54AA55A95674201201D7AE57AFB1
:10039500587C007D641201E9EF2430FFAB5405560B
:1003A500E55670020555F9AA55EF1201D7AE57AFBC
:1003B500587C007D641201E98C578D58AE57AF58B3
:1003C5007C007D0A1201E9EF2430FFAB540556E5A8
:1003D5005670020555F9AA55EF1201D7AE57AF5819
:1003E5007C007D0A1201E98C578D58E5582430FFB1
:1003F500AB540556E55670020555F9AA55EF0201AD
:01040500D71F
:0205C4008F2185
:1005C60012059D8F22E52104FF12059DAD07AF227E
:1005D600EF3395E0EFFEED3395E0FCE42DFFEE3CC6
:0105E600FE16
:0105E70022F1
:0806E1008F993099FDC29922A6
:10054A008B1D8A1E891FAB1DAA1EA91F120191FFAE
:10055A0060171206E17F027E0012062E7401251F23
:0A056A00F51FE4351EF51E80DD22AA
:10062E00D3EF9400EE940040147D727C00ED1D70AB
:0D063E00011CED4C70F7EF1F70E61E80E30D
:01064B00228C
:0100210022BC
:0F06AB00D2A6D2A7120021C2A6120021C2A722F6
:0C06D500C2A6D2A7120021D2A60200216A
:0E06BA00A20092A6D2A7120021C2A702002120
:0D06C800D2A7120021A2A6C2A71200212273
:02060B008F2539
:10060D00E4F526E52525E0F52592A6D2A7120021D1
:10061D00C2A71200210526E526C3940840E502066F
:01062D00C804
:10057400E4F526D2A6F525E52625E0F526D2A71230
:100584000021A2A6E4334226C2A71200210525E5D4
:0805940025C3940840E1AF26E5
:01059C00223C
:10067F008F218D221206AB7FD012060BAF211206EF
:09068F000BAF2212060B0206D586
:02059D008F23AA
:10059F001206AB7FD012060BAF2312060B1206AB5F
:1005AF007FD112060B1205748F24D2001206BA12D5
:0405BF0006D5AF248A
:0105C3002215
:10064C00000000000000000000000000000000009E
:0A065C000000000000000000000094
:1006980010440000000000000000000000000000FE
:0206A800000050
:0804F1008B3E8A3F89408D41DA
:1004F90074FFF542F543E4FDEDC39541503EAB3E33
:10050900AA3FA9408D827583001201AA6243E4FCC7
:10051900E54330E015E542C313FEE54313FFEE64FE
:10052900A0F542EF6401F543800BE542C313F542A0
:10053900E54313F5430CBC08D70D80BCAE42AF436D
:01054900228F
:10028E0078217C007D007BFF7A06794C7E007F080A
:10029E0012016B78297C007D007BFF7A0679547EF3
:1002AE00007F0812016B78317C007D007BFF7A069F
:1002BE00795C7E007F0A12016BE4F53CF53DF53B5F
:1002CE00E53B25E025E02444F812022D120064E5FA
:1002DE003B25E02421F8A60608A607E53B25E024E9
:1002EE0021F8E6FE08E6FFE53B25E02429F8A60600
:1002FE0008A607053BE53BB404C6E4F53BE53B2504
:10030E00E02429F808E6FFE53B25E02431F8A607AE
:10031E00E53B25E02429F8E6FEEEFFE53B25E0244B
:10032E0032F8A607053BE53BB404D27B007A007990
:10033E00317D081204F18E3C8F3D8F39E53CF53A44
:10034E00E4F53B7431253BF8E6FF1206E1053BE58B
:06035E003BC3940A40EDD0
:010364002276
:1000260075F020800E75F010800575F0087D007E55
:10003600007F003392D530D50312021FEC334010F7
:10004600EF33FFEE33FEED33FDEC33FCD5F0ED225E
:0E005600E5F0247EA2D513CC92E7CDCEFF229A
:10006400EDD2E7CD33EC3392D524814006E4FFFE94
:10007400FDFC22FCE4CFCECDCC24E0501174FF80F3
:10008400EDC3CC13CCCD13CDCE13CECF13CF047090
:07009400F030D5DE02021F6F
:03000000020406F1
:0C040600787FE4F6D8FD75815802044DA3
:10009B00E709F608DFFA8046E709F208DFFA803E47
:1000AB0088828C83E709F0A3DFFA8032E309F60834
:1000BB00DFFA8078E309F208DFFA807088828C839C
:1000CB00E309F0A3DFFA806489828A83E0A3F60850
:1000DB00DFFA805889828A83E0A3F208DFFA804C2A
:1000EB0080D280FA80C680D4806980F28033801001
:1000FB0080A680EA809A80A880DA80E280CA80336A
:10010B0089828A83ECFAE493A3C8C582C8CCC583E1
:10011B00CCF0A3C8C582C8CCC583CCDFE9DEE780B1
:10012B000D89828A83E493A3F608DFF9ECFAA9F030
:10013B00EDFB2289828A83ECFAE0A3C8C582C8CC86
:10014B00C583CCF0A3C8C582C8CCC583CCDFEADE9F
:10015B00E880DB89828A83E493A3F208DFF980CC01
:10016B0088F0EF60010E4E60C388F0ED2402B404FA
:10017B000050B9F582EB2402B4040050AF232345A1
:06018B0082239000EB73DB
:10019100BB010689828A83E0225002E722BBFE026C
:0901A100E32289828A83E493229F
:1001AA00BB010CE58229F582E5833AF583E022500A
:1001BA0006E92582F8E622BBFE06E92582F8E22254
:0D01CA00E58229F582E5833AF583E493226E
:1001D700BB010689828A83F0225002F722BBFE0107
:0201E700F32201
:1001E900C2D5EC30E709B2D5E4C39DFDE49CFCEE31
:1001F90030E715B2D5E4C39FFFE49EFE120239C36E
:10020900E49DFDE49CFC800312023930D507C3E468
:060219009FFFE49EFE229F
:0E021F00C3E49FFFE49EFEE49DFDE49CFC22F0
:0C022D00E6FC08E6FD08E6FE08E6FF22FD
:10041200020492E493A3F8E493A34003F68001F26A
:1004220008DFF48029E493A3F85407240CC8C333EB
:10043200C4540F4420C8834004F456800146F6DFBA
:10044200E4800B0102040810204080900698E47EAC
:10045200019360BCA3FF543F30E509541FFEE493AF
:10046200A360010ECF54C025E060A840B8E493A376
:10047200FAE493A3F8E493A3C8C582C8CAC583CAA1
:10048200F0A3C8C582C8CAC583CADFE9DEE780BE59
:0106AA00004F
:10023900BC000BBE0029EF8DF084FFADF022E4CCA9
:10024900F875F008EF2FFFEE33FEEC33FCEE9DEC72
:10025900984005FCEE9DFE0FD5F0E9E4CEFD22EDB8
:10026900F8F5F0EE8420D21CFEADF075F008EF2F02
:10027900FFED33FD4007985006D5F0F222C398FDF3
:050289000FD5F0EA2290
:00000001FF
