:10020400758920758DFD758BFDD28EC29FD29ED2CD
:060214009CD2AFD2AC2227
:080268008F993099FDC2992223
:08027000E4F5147F5502026859
:1001DE0012020412021A120270E515FE7C00E425CA
:1001EE0017F512EC3EF511AF12FE1200267FF47ECB
:0601FE000112000380E085
:0300230002018453
:10018400C0E0C0D0309827C298859916E51470074E
:1001940085161505148017E514B40108851617751E
:1001A4001496800AE514B464058516130514D0D09A
:0301B400D0E03266
:10000300D3EF9400EE940040147D727C00ED1D70DC
:0D001300011CED4C70F7EF1F70E61E80E33E
:0100200022BD
:0A025E006572726F722020202000EC
:10022E00C2B5C2B6D2B78F807F057E00120003C260
:02023E00B722E5
:10024000D2B5C2B6D2B78F807F057E00120003C23E
:02025000B722D3
:10021A007F0112022E7F0612022E7F3812022E7FD3
:04022A000C02022E92
:0501B7002430FBE4FD13
:1001BC008F0C8D0D8B0EE50D7006E50C24808009DF
:1001CC00E50DB40108E50C24C0FF12022EAF0E029F
:0201DC000240DF
:100146008F0C8D0D8B0E8A0F8910E50D7006E50C50
:1001560024808009E50DB40108E50C24C0FF1202D5
:100166002EAB0EAA0FA9101200D8FF601012024083
:0E01760074012510F510E4350FF50F80E4221A
:04002600AB07AA0674
:10002A00D3EB941EEA940050030200CBEB9494EABB
:10003A00941140030200CB7C037DE81200F18F0883
:10004A007C037DE8AF03AE021200F17E007F64CF2D
:10005A00CDCFCECCCE1200F18F097C007D64AF03E8
:10006A00AE021200F17E007F0ACFCDCFCECCCE12E7
:10007A0000F18F0AAE02AF037C007D0A1200F18DF7
:10008A000BE5082430FBE4FDFF1201BCE5097F0102
:10009A001201B7E50A7F021201B77B2EE4FD7F0346
:1000AA001201BCE50B2430FBE4FD7F041201BC7B8A
:1000BA0063E4FD7F051201BC7B6DE4FD7F0602014E
:0D00CA00BC7BFF7A02795EE4FDFF12014667
:0100D7002206
:03000000020252A7
:0C025200787FE4F6D8FD7581170201DE0C
:1000D800BB010689828A83E0225002E722BBFE0226
:0900E800E32289828A83E4932259
:1000F100BC000BBE0029EF8DF084FFADF022E4CCF3
:10010100F875F008EF2FFFEE33FEEC33FCEE9DECBB
:10011100984005FCEE9DFE0FD5F0E9E4CEFD22ED01
:10012100F8F5F0EE8420D21CFEADF075F008EF2F4B
:10013100FFED33FD4007985006D5F0F222C398FD3C
:050141000FD5F0EA22D9
:00000001FF
